:020000041000EA
:10000000002008205D0100101B0100101D010010E0
:100010001101001011010010110100101101001058
:100020001901001019010010190100101F01001022
:10003000110100101901001021010010230100100E
:100040001101001011010010110100101101001028
:100050001101001011010010110100101101001018
:100060001101001011010010110100101101001008
:1000700011010010110100101101001011010010F8
:1000800011010010110100101101001011010010E8
:1000900011010010110100101101001011010010D8
:1000A00011010010110100101101001011010010C8
:1000B00011010010110100101101001011010010B8
:1000C00011010010110100101101001011010010A8
:1000D0001101001011010010110100101101001098
:1000E0001101001011010010110100101101001088
:1000F0001101001011010010110100101101001078
:100100001101001011010010110100101101001067
:10011000EFF30580103800BE00BE00BE00BE00BE7A
:1001200000BE00BEF2EB8871146E0010346E001039
:10013000A001001090A31AE7D3DEFFFF42012110B7
:10014000FF010000707E0000793512AB4FF0000017
:100150001E49086006C881F3088810474FF05040D8
:10016000006810B14FF00000F2E70DA40ECC00299A
:1001700002D000F012F8F9E71549164A002000E015
:1001800001C19142FCD11449884714498847144958
:10019000884700BEFDE701C901C29A42FBD3704700
:1001A000346E00101001002084120020A87F00107F
:1001B0000000082000000820A87F00100010082080
:1001C00000100820000000007047000008ED00E06B
:1001D000841200202C60002025170010AD020010B2
:1001E0001D170010F8B500BF10B5054C237833B9C2
:1001F000044B13B1044800E000BF0123237010BD7D
:1002000010140020000000005C6A001008B5034BC9
:100210001BB10349034800E000BF08BD0000000017
:10022000141400205C6A001070B5192082B000F030
:100230006BF81924012343EC444000260D4D0122A4
:1002400042EC4040002301A9019228681A4604F0BC
:100250004DFC642005F010FB46EC4040002328686C
:100260001A4601A9019604F041FC642005F004FB44
:10027000E5E700BF1C1F002000B5094C094E0A4DE0
:1002800083B04FF0FF32206801A904F0CFFD019B3D
:10029000012B0CBF2846304601F078FBF1E700BF88
:1002A0001C1F0020646A00105C6A001000240125F5
:1002B00080B582B001F02AFB22460421284604F0D2
:1002C000D5FB06460B4F4FF4807223460A49CDE911
:1002D00000540A483E6005F023FA23464FF480722A
:1002E0000749CDE90054074805F01AFA05F0E2FA8B
:1002F000FEE700BF1C1F00206C6A001029020010DE
:10030000786A00107902001030B4002343EC4400F6
:1003100043EC400005254FF480740B4BC20053F8AA
:10032000201003EB800081F0400102F1804303F5CF
:10033000203301F0C00200F5805100F540500A6002
:100340005D60046030BC7047048003400FB400B5AA
:1003500083B0049C074801F019FB3CB105A9204675
:10036000019101F0C1F9044801F010FB012001F0F6
:10037000D3F900BF846A0010946A0010EFF3108074
:1003800072B6064BD3E8CF1F01220029FAD1C3E889
:10039000412F0029F6D1BFF35F8F7047DB15002096
:1003A0000023034AC2E88F3F80F31088704700BFE4
:1003B000DB15002070B5EFF3108572B6134CD4E84E
:1003C000CFCF0126BCF1000FF9D1C4E84C6FBCF1CE
:1003D000000FF4D1BFF35F8F4FF0010C4FEAD10E45
:1003E00001F007030CFA03F310F80EC01CEA030631
:1003F00008D14CEA030300F80E30C4E88F6F85F390
:10040000108870BD1046FFF7A1FF00BFDB1500206C
:10041000F8B5EFF3108572B6234CD4E8CF7F0126F0
:10042000002FFAD1C4E8476F002FF6D1BFF35F8FDA
:100430009A4227D80126D70810F807E002F0070CE7
:1004400006FA0CFC1EEA0C0F00EBD2070DD125E0DA
:100450004FEAD20E10F80EE002F0070C06FA0CFC80
:100460001EEA0C0F00EBD20718D001329342EFD2F4
:100470004FF0FF300023C4E88F3F85F31088984287
:1004800007DBF8BD0023C4E88F3F85F310884FF0E9
:10049000FF300029F5D00698FFF758FF4EEA0C0C04
:1004A000104687F800C0E5E7DB150020044A107805
:1004B000431CDBB2172B88BF10231370704700BF9B
:1004C000D011002010B5054C82B001461F23182220
:1004D00000940348FFF79CFF02B010BD986A00101B
:1004E000EC1900204FF0E022936843F00053936032
:1004F000704700BF0021044B03F12002C3E88F1FA7
:1005000001339342FAD17047D01500204FF0E02319
:100510004FF08032C3F80024C3F80424C3F8082441
:10052000C3F80C24C3F81024C3F81424C3F8182407
:10053000C3F81C24C3F82024C3F82424C3F82824B7
:10054000C3F82C24C3F8302462B67047012300F0AE
:100550001F029340400941B1800000F1604000F566
:100560006140C0F8803103607047024A203042F891
:100570002030704700E100E00123064A410952F8AB
:10058000212000F01F0003FA00F0104214BF1846AB
:100590000020704700E100E001224309044900F017
:1005A0001F0002FA00F0403341F82300704700BFFB
:1005B00000E100E0054A10309268054B52F8200037
:1005C000C01A2F288CBF00200120704700ED00E0EA
:1005D000D4110020F8B50D46EFF3108772B6124E15
:1005E000D6E8CF2F0123002AFAD1C6E8423F002ADD
:1005F000F6D1BFF35F8F0D4B00F110049B680C4ADE
:1006000053F82430934203D0994201D000F020FFE8
:10061000064B9B6843F82450BFF35F8F0023C6E866
:100620008F3F87F31088F8BDD915002000ED00E05A
:10063000110100102DE9F04F80468B46174683B01C
:10064000EFF3108372B6DFF8D0A10093DAE8CF1F82
:1006500001230029FAD1CAE8413F0029F6D1BFF3AE
:100660005F8F664E96F90050002DC0F2A080644C5A
:1006700005EB450304EB8300817908F11008317024
:1006800060499B008968994651F828E00646AEEB20
:1006900004012F294FEA450231D95B4B9E4540F0BA
:1006A000A2805A4B09F10209A144043BA3EB0903C0
:1006B000C3F34A036FEAC3434FF421416FEAD343C4
:1006C000154424F8251004EB85056B804BF6015387
:1006D000AB80FF2346F0010EEF71C5F808B0AB7197
:1006E000484B9B6843F828E0BFF35F8F0023CAE8BC
:1006F0008F3F009B83F3108803B0BDE8F08F2EF08E
:10070000010191F807C0BC452BD84FF42146E652B1
:100710003E4B09F102062644043B09F104099B1BE8
:10072000A1440E1FC771A6EB0906394FC6F34A064E
:100730003E438680C3F34A03364E3B4343804AF62A
:10074000AA250B461B1B5B415D432D0DC0F808B06D
:10075000857140F0010E0E60C2E7C079B8422BD916
:10076000614691F9063003EB430004EB8000002B57
:100770008446F2DA4BF6015001930B1D043EF61A43
:10078000C6F34A066FEAC6466FEAD64602EB050C88
:10079000DFF88090019B8D7104EB8C058E8044F80E
:1007A0002C90A880AB71EF71C5F808B098E700F005
:1007B0004FFE96F900505AE788880193400501F1F1
:1007C000040315D44FEA605C6FF007000CF1020CD3
:1007D000A0EB090003EB4C0C001B6044C0F34A0083
:1007E00040F46040CAE7019200F032FE019A58E7F7
:1007F00000F5FF1000F5FF501F30E3E723600020F5
:10080000D411002000ED00E01101001004120020BE
:1008100000E0FFFF01488047D91500204FF0FF0C92
:1008200020F0030303F1604303F5644300F0030089
:100830001A68C0000CFA00FC22EA0C0281400A434C
:100840001A607047F0B5EFF30585EDB2EFF3108C49
:1008500072B62649D1E8CF2F0123002AFAD1C1E888
:10086000423F002AF6D1BFF35F8F214E40F0010EC8
:10087000B4684AF6AA2354F825701E4A0446A41AFE
:10088000644163431B0D77455BB21BD092F9064070
:100890009C421CD092F912409C4223D092F91E40F7
:1008A0009C4221D092F92A409C4208BF03240FD0D9
:1008B000114A0024157813708571C1E88F4F8CF3AD
:1008C0001088F0BDB2680D4C42F82540F0E70024D6
:1008D00004EB440402EB8402FF2494714BF60154B0
:1008E0009480E5E70124F3E70224F1E7D91500201D
:1008F00000ED00E0D4110020236000201101001061
:1009000010B5074C82B0014605230022009405482B
:10091000FFF77EFD0028A8BFC0F1330002B010BD74
:10092000B46A001028600020014B19440160704730
:10093000D01500202DE9F041154D164EB54224D2B8
:100940002C4623684FF0FF374FF000088BB1FFF7BC
:10095000ADFD01462846FFF7E7FF676084F8088091
:10096000BFF35F8F0C34B4420FD223682546002BAF
:10097000EDD1FFF79BFD01462846FFF7D5FF6760E5
:10098000BFF35F8F0834B442EFD3BDE8F08100BFFE
:10099000741200208412002010B50446FFF786FD73
:1009A00001462046FFF7C0FF4FF0FF336360BFF3FF
:1009B0005F8F10BD10B504460120FFF783FD034B88
:1009C00018442060BFF35F8F10BD00BFD01500201A
:1009D000024B19440160BFF35F8F7047D0150020B0
:1009E0002DE9F04F2DED028B85B0EFF30583DBB2DF
:1009F000103B9A0818BF01224FF0010103F00300D9
:100A0000AD4B00EB82020CBFAC4FAD4F53F82260F0
:100A100001FA00F207F541539FEDA58BB046019016
:100A200000925A6035E0B8F804301B0440F192801F
:100A300098F80630002B40F0DF80B8F90820002A33
:100A4000C0F22581D8F8143002EB420203EBC20257
:100A5000D2E90245B5F1FF3F08BFB4F1FF3F0DD029
:100A6000019B07EB8301BB6A0A69D21AE31A93421E
:100A700003D33B6A009A134200D10C61384600F060
:100A80005FFB201A65EB0105012875F1000380F278
:100A9000FE80B8F90840009B002CFB63C3DBD8F84C
:100AA00014A004EB440B38460AEBCB05D5E90296BB
:100AB00000F046FB484561EB06010029B3DB002E40
:100AC000C0F2C3802B697F4A934200F0FD806A88A0
:100AD000B8F9080092B242EA0040696998470246B4
:100AE0000B4652EA030100F0B080002B80F2D58063
:100AF000B9EB020066EB0303C5E902033AF93B5088
:100B0000002D90DBD8F814C005EB45010CEBC101BA
:100B10008A68821ACA6863EB0202002A83DBA8F89B
:100B2000085007E09568451BD56863EB0505002D67
:100B300008DB1146B1F9006006EB4602002E0CEB13
:100B4000C202EFDA2AF83B600C80B8F804301B04CC
:100B50003FF56EAFD8F81030EFF3108272B6D3E8DD
:100B6000CF0F01210028FAD1C3E8401F0028F6D199
:100B7000BFF35F8F4FF6FF70B8F804900023D8F8EA
:100B800010100FFA89F9A8F80400C1E88F3F82F32A
:100B900010889945FFF64CAFBA46D8F8145008F1C2
:100BA000080B09EB490E05EBCE03D3E90267B8F950
:100BB0000830DC46002B05DA0FE035F93430844686
:100BC000002B0ADB03EB430405EBC400D0E902125F
:100BD000711A67EB0202002AEFDAACF8009035F9DF
:100BE0003E9025F83E30B9F1000FDADA98F8063079
:100BF0005746002B3FF421AF002388F80630B8F9A0
:100C0000083008F1080C5E1C41D01A46D8F8144090
:100C100003E08446591C3FF412AF03EB430104EB9D
:100C2000C10045881E462D0434F93130F1D5964275
:100C300080ED028BEED0ACF80030B8F8082024F834
:100C400031203246A8F80860E4E73AF83B30A8F8CB
:100C50000830D8F81030EFF3108272B6D3E8CF0F17
:100C600001210028FAD1C3E8401F0028F6D1BFF3C4
:100C70005F8FB8F80230D8F810102AF83B30002304
:100C8000A8F80240C1E88F3F82F31088CBE640BF4E
:100C900005B0BDEC028BBDE8F08F3846CDE90223EC
:100CA00000F04EFA029A039B801843EB010323E7FE
:100CB000FFFFFFFFFFFFFFFF681E002000000B404B
:100CC00000800B40E10900106B6918461A69029315
:100CD00090470028B9D0029BD3E9002301E700BF69
:100CE0000B4808B50368EFF3108172B6D3E8CFCF95
:100CF0000122BCF1000FF9D1C3E84C2FBCF1000F69
:100D0000F4D1BFF35F8F03F0DDFB0020002108BDAD
:100D1000101F00202DE9F84F364C25692DB1BDE894
:100D2000F84F0A213448FFF7FFBDDFF8E4800326BF
:100D30000321404600F0F2F9C4F80C80FFF7B6FB3F
:100D40004FF0504C2D4B26701844DCF800300F212A
:100D50006370636961801D834FF00405A3F87850C8
:100D60004FF00505A3F890504FF00605A3F8A850E2
:100D70004FF007050E21206108274FF6FF724FF054
:100D80000A0EA3F8C0504FF001094FF00C0C4FF0C1
:100D9000020B4FF0090A0D204FF00B05A3F8681164
:100DA0001749A280A3F808E1A160A3F848B0A3F80E
:100DB000F0A0A3F82051A3F838C1A3F85001A3F87C
:100DC0003090A3F86060A3F8D8701A800D4B3046BD
:100DD000C8F820700C49DC60FFF7FCFB4946304640
:100DE000FFF7B4FB094B0A211F600348BDE8F84F29
:100DF000FFF79ABD1C120020101F0020D015002004
:100E0000FFFF1000681E0020E109001040200B4089
:100E100000000B40004870471C1200202DE9F041F3
:100E20009DF82050044617461E4635B900F090F94B
:100E3000874266EB0101002957DB2169EFF310803F
:100E400072B6D1E8CF2F0123002AFAD1C1E8423F80
:100E5000002AF6D1BFF35F8FB4F90220D4F814C092
:100E600002EB4201002A4FEAC10E0CEBC10102DB8A
:100E70003CF80E3063804FF000082369C3E88F8F81
:100E800080F31088424533DB4888069B0130C0F36D
:100E90000E00012838BF01200B61079B48804B6181
:100EA000C1E9027640EA02402369EFF3108172B68D
:100EB000D3E8CF6F0125002EFAD1C3E8465F002E9C
:100EC000F6D1BFF35F8FA3882CF80E30A280236980
:100ED000C3E88F8F81F310880122E368217803F53E
:100EE00001538A405A60BDE8F0812846BDE8F08190
:100EF0004FF0FF30F7E700BF0146F0B50069EFF3B0
:100F0000108772B6D0E8CF5F0124002DFAD1C0E877
:100F1000454F002DF6D1BFF35F8FB1F902E04C6968
:100F20000EEB4E0C4FEACC06BEF1000FA8BFA05B43
:100F30004FF00005A8BF488004EBCC0C0869C0E85E
:100F40008F5F87F31088AE4535DBBCF80200CCE933
:100F500002230130C0F30E00012838BF0120059B99
:100F6000ACF80200CCF81030069B40EA0E40CCF8FA
:100F700014300B69EFF3108272B6D3E8CFCF01279C
:100F8000BCF1000FF9D1C3E84C7FBCF1000FF4D1E4
:100F9000BFF35F8F8B88A353A1F804E00B69C3E80C
:100FA0008F5F82F310880122CB68097803F5015323
:100FB0008A405A60F0BD4FF0FF30F0BD4289B2EB7D
:100FC000214F38DD42690B1403EB430310B502EBEC
:100FD000C3030469EFF3108C72B6D4E8CFEF01229B
:100FE000BEF1000FF9D1C4E84E2FBEF1000FF4D1CD
:100FF000BFF35F8F5A8889B292B28A4207D000232A
:101000000269C2E88F3F8CF31088184610BD42F485
:1010100000425A800123002201698371C1E88F2FA9
:101020008CF31088C268017802F5015203FA01F1CD
:101030001846516010BD0020704700BF40787047CF
:101040002DE9F04307460E4683B0EFF30584E4B282
:1010500074B12F4B586A884203D2002003B0BDE818
:10106000F0839B6ABB4248D3012003B0BDE8F08304
:10107000284DD5F80C9095F80080484600F060F8AF
:1010800008F1040859F828301B1A381A66EB0101D8
:10109000984271F100030DDB20BF1D4B586A864258
:1010A000DBD89B6ABB42DFD2301A18BF012003B0E5
:1010B000BDE8F08300F04CF8874266EB010100299F
:1010C00013DB154B2846CDE900343A463346FFF78B
:1010D00013FF011E09DD0E4B5A6A964215D89B6A12
:1010E000BB4210D30B48FFF769FF094B586A864291
:1010F000B3D89B6ABB42B7D2D6E7401A18BF0120CB
:1011000003B0BDE8F0839642ECD120BFEAE700BF10
:1011100000000B401C120020E10C001010B4054B25
:10112000054C064AA04214BF1846581C5DF8044BF3
:10113000FFF740B9F019002000800B40D06A001082
:10114000416A0B46826A416A8B42FAD11046704767
:10115000034B596A0A46986A596A9142FAD1704714
:1011600000000B4000EB400C4FEA8C0C0CF1804C63
:101170000CF5803C70B5DCF80440A0F1040EB4F529
:10118000803F38BF4FF480345FFA8EFE38BFCCF812
:101190000440BEF1010F29D94FF40066244D0CF52F
:1011A0004054266055F82060BEB9DCF800400CF5CC
:1011B000805684EA421202F0E002BEF1010F326072
:1011C00028D94FF4006145F820304FF480330CF5F6
:1011D00000521160CCF8043070BD6C69B4FBF6F4B9
:1011E000013404EB4404033CFDD2DEE70129D3D1F2
:1011F00003250CF540542560DCF80840E407FBD5D6
:10120000DCF800400CF5805684EA421202F0E0025D
:10121000074D32600122DCF800404C4004F003042A
:10122000346002FA01F1DCF808200A42FBD0C8E77A
:10123000F4190020014B53F820007047F4190020E6
:1012400070B4039C0568240344EA03431B4C002D3F
:10125000B4FBF1F4B2FBF4F21FDB194D194CA842B8
:101260000CBF4FF400454FF48045174E256004F540
:1012700080542560B46835EA0404FBD1212500F5CB
:10128000405404340160826025600268002AFCDA60
:101290000822C360226070BC7047046804F03F04F9
:1012A0008C42DAD18468C4F30B049442D5D1C4686B
:1012B00004F4EE249C42D0D1EDE700BF001BB70040
:1012C00000800540002002400000024030B44FF092
:1012D00080441D4B1C60E0B11C4CA3F54053DC6105
:1012E0001B4C40F0010044401C62596298624FF070
:1012F00080454FF0E061144B1648174C1D60846028
:1013000019604AB930BC4FF00042A3F580531A600F
:101310007047124BD861EAE74FF47A7303FB02F28D
:10132000B2F1807F09D20E4B1A604FF0804130BC81
:101330000A480C4B4260196070476FF07F430849C0
:101340001A460B60F1E700BF00B00D40D3C007B0F4
:101350002D3FF84F00A00140F3FFFF0100800D403A
:10136000581E002000A00D40012300EB400080002B
:1013700000F1804000F5841041600360704700BFB9
:1013800010B5002482B00B46E48A002141E800F148
:10139000CDE900034B0254BF1021042144F2522036
:1013A000A047DDE9002386460A214FF48170F44608
:1013B00002B0BDE8104060470023DB8A002242E80B
:1013C00000F2520201D4102118470421184700BF2F
:1013D00008B50B46011E02DB22B143F0300318466C
:1013E000FFF7CEFF43F02003F9E700BF034AD2F82E
:1013F0002838002BFBD0BFF35F8F704700000E40F2
:101400000021044B044ABFF35F8F43F8041B93424F
:10141000F9D170470C080E402C080E4010B44FF460
:101420008D704FF42A64064A064B07491460D06059
:1014300019605368002BFCDA5DF8044B704700BF5D
:101440000080044000A0044000B0FA00704700BFD4
:1014500008B50148FEF77AFFF46A001038B5054C6C
:10146000054DAC4204D254F8043B9847AC42FAD341
:1014700038BD00BF106A0010506A001010B4074851
:10148000074C084B084A094904601A608B6832EA25
:101490000303FBD15DF8044B704700BF00200240FE
:1014A0007F3BEFEF00300240F6FFF3030000024005
:1014B000044BDB6CB3F5004F03D14FF48022024B99
:1014C000DA64704700001150002011504FF0E02204
:1014D000044BD2F8881D0B43C2F8883D10EE30044F
:1014E000704700BF030330006FF06041044B054AB2
:1014F00019609368DB4333F06043FAD1704700BF53
:10150000003002400000024010B545F25320FFF7C2
:1015100053FFBDE8104003460420184710B545F2BC
:101520005320FFF749FFBDE810400346012018474C
:10153000FEF7E0BF70B52E492E4C2F4E641AA51051
:10154000442D2A4628BF44223046920005F00EF969
:10155000B4F5867F47D805F1010CBCF1440FC5F105
:1015600043013444C5F1440088BF01200529634686
:10157000224AC4F3800418D9BCF1440F15D8ACB387
:1015800046F82520001B2C4406EB8403410803EB9E
:10159000C101C3E9002208339942FAD120F00103C6
:1015A00098420CEB03051ED06B1C442B46F82520FB
:1015B00019D0422D46F8232005F1020313D0412D06
:1015C00046F8232005F103030DD0402D46F82320D3
:1015D00005F1040307D03F2D46F8232005F105034C
:1015E00001D046F82320064B9E6070BDAC46C9E78B
:1015F0000000001010010010000000201101001078
:1016000000ED00E00023F0B52B4C83B0C4F884302B
:10161000FFF704FF0122294BDA63636C012BFCD135
:101620000321264A244B11639D6B012DFCD1052318
:1016300002271E4600242946214A22480097FFF728
:10164000FFFD29463346204A20480096FFF7F8FD63
:101650003946224604201E4BFFF784FD29462246C8
:1016600030461C4BFFF77EFD2246082021461A4BD0
:10167000FFF778FD224609202146174BFFF772FD40
:10168000224606202146134BFFF76CFD114B2246E4
:1016900007202146FFF766FD0420FFF7CBFD0F4D25
:1016A000A5FB0035AD0CE0B229460134FFF75CFE26
:1016B000062CF8D103B0F0BD00000140003001401D
:1016C000002F685900000540008C864700800540C7
:1016D000001BB70080D1F008006CDC0283DE1B43E6
:1016E00000B9704700F014B910B5094B84B01C68FC
:1016F0004CB1034600914FF0FF3203A90548A047C3
:10170000012004B010BD00F041F9204604B010BD26
:10171000541E0020E116001000BEFDE708B5FFF7DB
:10172000FBFF00BF38B5064D064CFFF797FEAC42F5
:1017300004D254F8043B9847AC42FAD338BD00BFFA
:101740005C6A0010506A001003680846114618478A
:10175000437D2DE9F04782460F469146002B44D049
:10176000002A2ADD002401252046DFF88C804E1E49
:101770002CB3337816F8012FA3F10D03B3FA83F3DA
:101780000A2A4FEA531320D02B46994504F101044D
:1017900005F10105ECDC814505DDA9EB0001DAF876
:1017A0000030384498474F4417F8013CA3F10D032B
:1017B000B3FA83F35B098AF81430BDE8F08716F8B2
:1017C000012F9AF814300A2ADED1002BDCD1A04276
:1017D00004DA211ADAF800303844984740460221EA
:1017E000DAF8003098472846CEE73846DAF8003075
:1017F0001146BDE8F0471847986B00102DE9F047F7
:1018000082B00D46924699460746FFF7A1FC2F4A43
:10181000821841F10003002BBCBF4FF0FF326FF084
:1018200000432B4805F0CCF86B1C804603D13846AA
:1018300005F064F80546274B274E1C68274BB9F185
:10184000000F08BF1E46B4B1BAF1000F1AD1DFF87D
:10185000909001E0246974B12368002BFAD0D9F884
:1018600000300BB1A342F5D120462A463946B04795
:101870002469002CF0D1B8F1000F1FD1284602B026
:10188000BDE8F0874FF00A0ADFF8549002E02469BF
:10189000002CF0D02368002BF9D0D9F800300BB120
:1018A000A342F4D120462A463946B04720460122B9
:1018B0000DF107018DF807A0B047E8E7044805F0EF
:1018C0005FF8284602B0BDE8F08700BF40420F0035
:1018D0007C120020481A00205117001049170010F0
:1018E000501A0020084A136823B90AE003F11002D5
:1018F0001B6933B19842F9D129B9036913600161B9
:10190000704701B110607047481A002000F05CBABF
:10191000F0B583B006468DF80700FFF719FC174AAB
:10192000821841F10003002BBCBF6FF000434FF061
:10193000FF32134805F044F8124B07461C689CB16F
:10194000114D01E024697CB12368002BFAD02B688B
:101950000BB1A342F6D1204601220DF10701FFF79A
:10196000F7FE2469002CEFD117B9304603B0F0BD63
:10197000034805F005F8304603B0F0BD40420F00C3
:101980007C120020481A0020501A002038B5044666
:1019900004F0B4FF012305461A4620462946FFF706
:1019A0002DFF084B1C682CB163682BB19847246944
:1019B000002CF9D1284638BD2469002CF4D12846E2
:1019C00038BD00BF481A0020704700BF0022014BFD
:1019D0001A707047246000204B79FF2B0BD1887957
:1019E00048B9CB79012B07D1082A05D9034B8A784E
:1019F00009201A7070470020704700BF2460002043
:101A000001207047012908D110B5124B0C461B78F4
:101A10009188994203D0002010BD0120704753786F
:101A2000012B08D0022BF6D1002164220846FFF7D3
:101A30004DFC204610BD5188CB054BBF4A0A4A0ACF
:101A400010464FF0FF3002F0010201F07F01FFF776
:101A5000BFFC00BF2460002000487047BC6B001032
:101A6000012907D15378012B02D19388072B03D08A
:101A700000207047012070471146A623014A01F05B
:101A800057BA00BFE06B00100346012201481A70EC
:101A9000704700BF9C6B001008B50B68B3F5966FDC
:101AA00000D008BD00224FF0FF301146FFF790FC38
:101AB000024A034B10601960704700BFE419002010
:101AC000E8190020184B70B51A68002A28D0EFF3E7
:101AD000108172B6D2E8CF4F0120002CFAD1C2E8B3
:101AE000440F002CF6D1BFF35F8F00220F4C186813
:101AF00059602270C0E88F2F81F3108800240025E0
:101B00000B4E3078FEF738FD20B900240025204622
:101B1000294670BD3078FEF73FFD2046294670BD4E
:101B20004FF47A740025EBE7601E00202660002049
:101B300025600020014B1878FEF72EBD256000209F
:101B400038B5044600200D4601F03AFB90B3002062
:101B500001F04CFB70B3FFF7FBFA184A821841F111
:101B60000003002BBCBF4FF0FF326FF0004314485E
:101B700004F026FFF0B1002001F022FB58B900214B
:101B80004FF0FF3000F01CFD6FF002040C4804F031
:101B9000F7FE204638BD002001F028FB0028EED0DB
:101BA00021462A46002001F02DFB041E08BF6FF0DD
:101BB0000204EBE76FF00204EBE700BF40420F00C6
:101BC000141F002008B5FFF7C3FA0F4A821841F12D
:101BD0000003002BBCBF4FF0FF326FF000430B48F7
:101BE00004F0EEFE70B14FF0FF30002100F0E8FC91
:101BF000002001F04FFB0028F5D1BDE80840034864
:101C000004F0BEBE08BD00BF40420F00141F0020FC
:101C10002DE9F84307460E46FFF79AFA344A821830
:101C200041F10003002BBCBF4FF0FF326FF00043C7
:101C3000304804F0C5FE08B9BDE8F883002001F083
:101C4000BFFA002849D0002E42DD0025DFF8A88029
:101C5000DFF8A89013E02246002001F05FFB00218E
:101C600004464FF0FF3000F0ABFC002001F012FB07
:101C7000FFF76EFAC8E900012544AE4228DD0020D6
:101C800001F070FB741B8442A8BF04467919002C34
:101C9000E1D121464FF0FF3000F092FC204601F0E8
:101CA000F9FA204601F08CFA90B1204601F05AFB77
:101CB0000028E2D1FFF74CFAD8F80030D8F8042019
:101CC00013EB090342F10002834272EB0103D4D209
:101CD0000848BDE8F84304F053BE00200021064B3D
:101CE000C3E90001BDE8F843024804F049BE00BF63
:101CF00040420F00141F00200814002020A10700FC
:101D000030B5002185B02A4804F042FEF0B9294BD5
:101D10001A68CAB1EFF3108172B6D2E8CF5F01241E
:101D2000002DFAD1C2E8454F002DF6D1BFF35F8FE9
:101D3000214C1D6822785960D3B201222270C5E877
:101D40008F0F81F31088CBB105B030BD00214FF06B
:101D5000FF3000F035FC002001F048FA044614483A
:101D600004F00EFE002CEFD0144B1B68002BEBD0C0
:101D7000134A106805B0BDE830401847FFF74AF82D
:101D80000446FFF7E5F910F57A7241F100030125E9
:101D9000002120460B4C002BBCBF4FF0FF326FF0F0
:101DA0000043CDE901150094FFF738F805B030BDC8
:101DB000141F0020601E002026600020E41900206F
:101DC000E8190020C51A00104FF0504330B585B017
:101DD0001C68FFF71FF8FFF731F9A04202D000207E
:101DE00005B030BD0021274B08461B7801F088FD67
:101DF00025480368002B42D00120FEF781FD0346F1
:101E0000224C2349C0B22370FEF7E4FB2078012165
:101E1000FEF79CFB0E20FEF7CDFB18BB1D4B0125EA
:101E2000C3E90000FEF7F6FF0446FFF791F910F54D
:101E30007A7241F1000300212046174C002BBCBFF1
:101E40004FF0FF326FF00043CDE901150094FEF72B
:101E5000E5FF0028C3DB01211048FFF743FD012007
:101E600005B030BD0120FEF72DFB01460948FEF705
:101E7000AFFD00220E200A49FEF7DCFBEBE7FEF780
:101E80008BFDB9E7306E0010141F00202560002084
:101E9000011D0010601E0020C51A00103412002021
:101EA000351B001000487047286D0010004870472F
:101EB000D46C001038B51A4B04461A782AB344B9CA
:101EC00040F209424FF44173164D6A8015482B8049
:101ED00038BD052C21D8144B124D53F82410284638
:101EE0000023013903E0132B20F8022F12D011F840
:101EF000012F5FFA83FC0133002AF4D10CF10103B6
:101F0000DBB25B0043F44073E0E71121184600F0B8
:101F100025F8D4E74FF44A73D8E7002038BD00BF56
:101F2000245F00201C1A00203C6D001000B545F213
:101F300047308BB0FFF740FA01220346092101A880
:101F40009847DDE90332044912BA1BBAC1E90023FC
:101F50000BB05DF804FB00BF081F0020013900F042
:101F6000B3805D4A13784FEA231C9F2B8CBF0CF182
:101F7000370C0CF1300C012980F800C000F0A7806C
:101F800003F00F03092BCCBF3733303302294370E2
:101F900000F09D8053784FEA231C9F2B8CBF0CF1DF
:101FA000370C0CF1300C032980F802C000F08F8050
:101FB00003F00F03092BCCBF373330330429C37030
:101FC00000F0858093784FEA231C9F2B8CBF0CF187
:101FD000370C0CF1300C052980F804C077D003F0E1
:101FE0000F03092BCCBF37333033062943716ED032
:101FF000D3784FEA231C9F2B8CBF0CF1370C0CF1CC
:10200000300C072980F806C061D003F00F03092BBC
:10201000CCBF373330330829C37158D013794FEA16
:10202000231C9F2B8CBF0CF1370C0CF1300C0929B1
:1020300080F808C04BD003F00F03092BCCBF373317
:1020400030330A29437242D053794FEA231C9F2B25
:102050008CBF0CF1370C0CF1300C0B2980F80AC046
:1020600035D003F00F03092BCCBF373330330C29A5
:10207000C3722CD093794FEA231C9F2B8CBF0CF199
:10208000370C0CF1300C0D2980F80CC01FD003F078
:102090000F03092BCCBF373330330E29437316D0CF
:1020A000D3791A119F2B8CBF373230320F298273AC
:1020B0000DD003F00F03092BD4BF30333733102971
:1020C000C37318BF103002D0002303707047002381
:1020D00008440370704700BF081F0020F8B500F0E7
:1020E0003BF90C2340271A4D1A4CAB67FF220E20F8
:1020F0001949FEF79FFA3A460021204604F0ACFB4E
:10210000164B0126A36280210023154A6670A26047
:10211000843A278327876184C2F88430C2F88030EC
:10212000636084F8213084F83B3063620D4BE360D8
:10213000E36204F01DFC4FF000544FF480320A4972
:102140000A4B2E643046EC64C5F89010DA64F8BD92
:1021500000001150541A0020BD03002080001050D0
:10216000840010500001105010D0010000201150C8
:1021700001210E20FEF7EAB900220248114600F0C4
:102180000BB900BF741A0020044B197021B14FF431
:102190000032034BC3F89020704700BF216000203D
:1021A000002011500B785B0602D14B78052B00D034
:1021B00070474B88014ADBB2136070470000115032
:1021C000CB782DE9F04103F0030EBEF1010FC3F30C
:1021D00001005FD0002791F802C0374D0CF07F025C
:1021E0005600898806EBDC1305EB43134FEADC1439
:1021F000C1F30A01D87684F0010083F802C0198384
:102200005870DF7094BB04232C4803EBC20305EB2A
:10221000821C03EB0008CCF808801F508AB3284BBF
:10222000D2001344CCF804303F31BEF1020F21F04C
:102230003F013AD0234A3719136805EB4717194471
:102240001160214AFB60914231D8344405EB4415BA
:10225000E97E83F0A04383F480136A6843EA8163D4
:1022600043F0004301201360BDE8F081134813B22E
:1022700000EBC20805EB821CCCF8288040F83370D4
:102280005AB90023114A05EB44140120E26063604F
:10229000BDE8F0810020BDE8F081D20002F1A0424B
:1022A00002F58012CCF82420BEE74900C2E7FFF710
:1022B000CFF8FB68C9E700BF541A00208000105017
:1022C000040010505C1E0020FF0F10500001105041
:1022D00004F04EBB8C4608B5114607481A460CF070
:1022E0007F034FEADC1C0CEB430C00EB4C1000F0BE
:1022F00053F8012008BD00BF541A002011F07F00E0
:102300000AD0C909074B01EB40004FF400620021DD
:1023100003EB401004F074BB034BC909C1F1020286
:102320009A66EFE7541A00200020115011F07F0345
:1023300000D17047002210B4C809064C00EB4300DE
:1023400004EB40136FF4006118465DF8044BDA703B
:1023500004F056BB541A00204FF0805209480A4935
:1023600008B50A4B02600A609968C94311F08051B0
:10237000FAD14FF48052064804F06EFA0922054B58
:102380005A6708BD002002400030024000000240B1
:102390000000105000001150837E10B50446BBB9F8
:1023A0004FF0000C01232046A2822161A4F816C040
:1023B000A37604F0D5FA20B14FF40032084BC3F8ED
:1023C0009020204604F014FB28B10123237710BD90
:1023D00004F006FBE4E72046BDE8104004F0F8BA3C
:1023E000002011502DE9F04100241D4D8046234668
:1023F0002A781C4F1C4E0DE0336813EB441325D094
:10240000DB68404698472A780134E4B2511CA14267
:10241000234606DBA242A3EB0203EDD807EB4313EE
:10242000EEE7124C54220021204604F015FA4FF03A
:10243000FF33251D6360C5E90133EB6004F114002F
:102440002022BDE8F041FF2104F006BA4FF0E0235E
:10245000D3F8F03DDB0700D500BEBDE8F08100BF3A
:1024600020600020B06D00102C140020FC1500200E
:10247000704700BF704700BF0020704700207047C2
:10248000704700BF704700BF704700BF704700BF74
:10249000024B5878003818BF01207047FC15002007
:1024A000024B1878C0F38000704700BFFC15002075
:1024B0002DE9F047DFF8008198F80030FF2B4DD16F
:1024C0000D4600294ED0002154220746314804F021
:1024D000C3F90022304C314B20461A70FEF75CFAEB
:1024E0002F4B1C602F4C04F11400FEF763FA2046BA
:1024F00001F0EEFD2C4B1C602C4B23B12C48FFF758
:10250000C3FA2C4B18600024294E23463278DFF89A
:10251000ACA0DFF8A0900EE0D9F8003013EB441324
:1025200011D05B687BB1984732780134E4B2511C1A
:10253000A142234620DBA242EED89B1A0AEB4313AA
:102540005B68002BEFD14FF0E023D3F8F03DDA07C2
:1025500000D500BE00252846BDE8F08701252846A5
:10256000BDE8F0874FF0E023D3F8F03DDB07F1D56D
:1025700000BE2846BDE8F0872946384688F8007036
:10258000FFF7ACFD05460028ECD03846FFF7F0FD1C
:10259000E5E700BFFC150020F415002022600020B4
:1025A000501600204C12002054160020891A0010EA
:1025B000206000202C14002068120020B06D001054
:1025C0002DE9F04FDFF8CC928BB099F80030FF2B5B
:1025D00000F0EF80AA4CDFF8C0A2DFF8C0B2256897
:1025E0006B69EFF3108272B6D3E8CF0F0121002898
:1025F000FAD1C3E8401F0028F6D1BFF35F8FAA616C
:10260000284607A901F0C0FB00236A69C2E88F3F92
:10261000AB6983F31088002800F0CB809DF81D3053
:10262000013B072B00F28E83DFE803F0A5B0919AFF
:1026300089360A04089B002BD1D009989847CEE729
:102640009DF820108F4B01F07F0503EB450303EB52
:10265000D11393F834206FF3000283F8342093F8F9
:1026600034206FF3820283F83420002D00F0A48020
:10267000854A1B7D1278934280F09180DBF8002020
:1026800012EB431300F08E809D699DF82120099B79
:102690009DF81C00A847A2E77C4A1378002B00F0A5
:1026A00081801378013BDBB21370137803F0FF00D5
:1026B000002B94D1734D9DF81C802B7843F00103BF
:1026C0002B7095F8343060F3000385F8343095F8BA
:1026D000343060F3820385F8343095F8353060F398
:1026E000000385F8353095F8353060F3820385F8BE
:1026F000353000F08DFC9DF8203003F06002602A38
:102700000BD0402A64D003F01F03012B00F0C880D7
:10271000022B00F08980002B66D04FF0E023D3F825
:10272000F03DDD0700D500BE9DF81C000021FFF73D
:10273000E5FD80219DF81C00FFF7E0FD4FE7514BC0
:102740001B78D9077FF54BAFFFF7A0FE47E74D4B4E
:10275000DB78DA077FF543AF0898FFF78BFE3EE79B
:10276000484B1A78D0077FF53AAF1878C0F3C0000D
:10277000FFF78AFE33E79DF81C00FFF733FE00F0F9
:102780003DFC404B9DF820209A7028E79DF81C00E6
:10279000FFF728FE00F032FCFFF774FE1FE7501C25
:1027A000984211DA4FF0E023D3F8F03DDC0700D572
:1027B00000BE0BB0BDE8F08F099B9DF821209DF86D
:1027C0001C0000F039FC0AE79B1A0AEB43135BE795
:1027D0002F4800F01DFC4046012108AAFFF740F9F0
:1027E00000287FF4FCAE9FE7202A00F08D81002AAC
:1027F00093D19DF82130092B8FD801A252F823F0F4
:10280000A72A00108B2A00101B270010C92A0010CD
:102810001B270010712A00101F2A00101B27001010
:10282000092A00102F2900109DF8241011F0700FB4
:102830007FF473AF144B01F07F06187805EB460365
:1028400003EBD1131F7DCB0987424FEA4606019364
:102850005BD3431CBB42C0F274813F1A0AEB47179B
:10286000002A00F07281786900F0D2FB4046012115
:102870007B6908AA984700287FF4B1AE54E700BFEF
:1028800054160020FC15002020600020226000204B
:10289000611A001068120020B06D00102C14002086
:1028A0009DF824300F2B3FF63FAFB54A2B441B79E0
:1028B0001578AB4234D36A1C9A42FFF635AF5B1BE6
:1028C0000AEB4315686900F0A3FB012140466B69E0
:1028D00008AA984700287FF482AE9DF8203013F0B4
:1028E00060057FF421AF9DF821300A3B012B3FF6B4
:1028F0001BAF00F08DFB9DF821300A2B00F0F78113
:10290000404608A900F0FAFA69E6DBF8003003EB6C
:102910004717002A00F01981002F3FF405AFA2E706
:10292000DBF8005015EB43153FF4FEAECAE76B78B9
:102930009DF822609E4200F054816B78002B40F09D
:10294000C4816E70002E00F04A81701EC0B2FFF785
:10295000ADFA002800F065814378022B40F06181D8
:102960002B78C27923F03001C2F340131B01C2F36C
:10297000801243EA42130B432B70438800F109068F
:10298000C3180293CDF80C80029BB34240F2AA8197
:1029900072780B2A00F0B5810123042A40F04181AE
:1029A00018464FF00008029A7549921B3346097881
:1029B000064692B2CDF804801EE0DBF8007017EBFB
:1029C000481700F02E811946049303983B6905923D
:1029D0009847DDE90432082808F1010102D9824252
:1029E00080F004815FFA81F86549CDF804800978A8
:1029F000481C804500F3158101988845A0EB010132
:102A0000DBD30AEB4117DEE76B7840468DF81A30CE
:102A10000DF11A02012308A900F08AFADFE5BDF8DA
:102A20002200030A5A1EC0B20E2A3FF67DAE01A153
:102A300051F822F0532C0010E52A00108F2C0010C2
:102A40002927001029270010712C0010E52A0010FA
:102A500029270010292700102927001029270010F6
:102A6000292700102927001029270010452C0010C5
:102A700008A800F0D3FA40469DF82210FFF77CFB2F
:102A80002B7843F002032B70A9E5BDF82230012B0F
:102A90007FF44AAE2B7840466FF3C30308A92B702E
:102AA00000F02CFA9BE540462B789A0802F00202CF
:102AB000C3F340131343ADF81A300DF11A02022389
:102AC00008A900F035FA8AE5BDF82230012B7FF421
:102AD0002BAE2B78404643F0080308A92B7000F07A
:102AE0000DFA7CE5022B00F01181FFF7C7FC0246CE
:102AF00000283FF419AE4046538808A900F018FAA0
:102B000000287FF46CAD0FE69DF824300F2B3FF6C4
:102B10000BAE1B4A2B441B791578AB4227D2DBF84E
:102B2000005015EB43153FF4FFAD686900F070FAF3
:102B3000404601216B6908AA984700287FF44FADF1
:102B4000F2E5002A7FF4F0AD00279DF8212002F085
:102B5000FD03012B16D0002A7FF4DFAD019B354425
:102B60002B4493F834304046C3F34003A3E76A1C78
:102B70009A42FFF6D9AD5B1B0AEB4315D5E700BFC0
:102B800020600020BDF82230ABB9012A00F0878018
:102B900099F80000FFF7B2FB019AAB19134493F8C0
:102BA000342042F0020283F8342093F8342042F0BB
:102BB000010283F83420002F3FF411AD786900F052
:102BC00027FA7B69012108AA40469847002000F0B7
:102BD0001FFA95F83530DE073FF501AD90E6FFF7B7
:102BE00051FC404608A900F089F9F8E43246012A70
:102BF0001E46134600F0A080002A00F08E800022BE
:102C0000B77805E081F80480D1B28B4240F285802C
:102C1000B91855FA81F191F804C00132BCF1FF0FE7
:102C2000F0D04FF0E023D3F8F03DDB0700D500BE35
:102C30004FF0E023D3F8F03DDF0700D500BE0023BE
:102C40006B7071E5FEF708FF024600287FF453AF72
:102C50006AE5FFF727F9024600283FF45EAD4046DB
:102C6000122308A900F064F900287FF4B8AC5BE5F2
:102C7000FFF702FC024600283FF456AD40461378A9
:102C800008A900F055F900287FF4A9AC4CE5BDF87F
:102C90002410FFF70FF902460028EFD144E599F818
:102CA00000000293FFF742FB019BAA191A4492F815
:102CB0003410029B63F3410182F8341092F834100F
:102CC00063F3000182F8341075E700214046FFF7F6
:102CD0005BFA4046FFF7FCFAAF784046FFF782FB0D
:102CE000AF702EE6DDF80C80FFF7CAFB79E74046AF
:102CF000012308A90DF11A028DF81A5000F018F9F5
:102D00006DE43278F3781644727846E6FFF7CEF831
:102D1000024600287FF4EFAEFFE402464346314608
:102D200006440D4800F0A0FE0C4B019A1B780133BD
:102D30009342BFF629AE74E73A6909498A4208BF4F
:102D400002235CE74FF0E023D3F8F03DDB077FF58B
:102D500046AC00BE43E400BF1016002020600020F7
:102D6000593400102DE9F84F0A9F002A40D00C4634
:102D70001E4615464FF0000ADFF87C90DFF87C8095
:102D800018E0204698F8021099F800B000F038FEDC
:102D9000E0B121465846FFF713FAF0B1A2780AF1E4
:102DA000010AD30916BF0B9B3A701A702278AA4504
:102DB00014441DD06278052A0FD1E17801F0030197
:102DC000B1420AD1A27812F0700FDAD04FF0E023AE
:102DD000D3F8F03DDA0700D500BE4FF0E023D3F87A
:102DE000F03DDB0702D40020BDE8F88F00BEFAE713
:102DF0000120BDE8F88F00BF68120020FC150020FC
:102E000038B58B7813F0700F08D04FF0E023D3F86B
:102E1000F03DDB0700D500BE002038BD074A084B57
:102E20000C46084691781D7800F0EAFD0028ECD0A9
:102E300021462846BDE83840FFF7C2B9FC150020FE
:102E4000681200200B46064A06481168DA09343237
:102E500003F07F0302EB4303184400F08BBD00BF77
:102E600050160020FC1500200B46064A0648116843
:102E7000DA09343203F07F0302EB4303184400F015
:102E8000A3BD00BF50160020FC15002010B5194C42
:102E900001F07F0C04EB4C0404EBD11090F834C02B
:102EA0001CF0010F08D04FF0E023D3F8F03DDA0713
:102EB00000D500BE002010BD90F834C000F13004F1
:102EC0000D484CF0010C007884F804C0FFF702FABA
:102ED0000028F0D14FF0E022237960F30003237142
:102EE000237960F382032371D2F8F03DDB07E1D54B
:102EF00000BE10BDFC1500206812002030B50B4C40
:102F00008C46A64600230546086849681A46AEE87E
:102F100003009CF9001028469942C4E90233BDE839
:102F20003040ACBF80211946FFF7B0BFBC15002070
:102F30002DE9F0412F4F4FF00008BE468C46064663
:102F400008684968BA60AEE80300A7F80E80BCF8CC
:102F5000065082B0AB4228BF2B46BB819DB14BB31C
:102F600014467AB397F90020402B28BF4023002A4B
:102F700032DB4146204A3046FFF788FF80B101200E
:102F800002B0BDE8F0819CF900202B46002AACBFBE
:102F9000802100212A463046FFF778FF0028EED135
:102FA0004FF0E023D3F8F03DDB0711D500BE02B0AF
:102FB000BDE8F08197F900101A460029ACBF194608
:102FC0008021D8E74FF0E023D3F8F03DDA070DD4A5
:102FD000002002B0BDE8F0811A4621460648019360
:102FE00003F0C4FB8021044A019BC4E700BE2046D5
:102FF000C6E700BFBC1500207C1500200022034B53
:10300000C3E90022C3E902221A617047BC150020FF
:10301000014B1861704700BFBC15002030B4024658
:10302000044C0025234600685168C4E9025530BCB1
:1030300003C37047BC15002070B5414CC909227804
:103040000546B1EBD21F1E4682B021D04BB14FF0E6
:10305000E023D3F8F03DDA0700D500BE002002B02F
:1030600070BD2146FFF79EF8236973B12246032104
:1030700028469847012002B070BD01462846FFF758
:103080003DF980212846FFF739F9012002B070BDD3
:1030900094F90020002A06DBA0680028DED01A463A
:1030A000284903F063FBE089A168E288304480B2DC
:1030B00031448242E081A16016D03F2E14D9A2890A
:1030C00094F90040131A9BB2402B28BF4023002CD8
:1030D00027DB90424FF000012FD01A4A2846FFF715
:1030E000D5FE0028D1D114E023692BB10221284656
:1030F000134A98470028C0D0002394F9002028469E
:103100009A42ACBF802119461A46FFF7BFFE00283D
:10311000BBD14FF0E023D3F8F03DDB079ED500BED6
:103120009DE7904208D01A460648019303F01EFB23
:103130008021044A019BD1E780210022CEE700BF15
:10314000BC1500207C1500202DE9F0410446FFF756
:103150009FF908B9BDE8F081FFF7A2F907460028FA
:10316000F8D1C825144B05FB0436F278002AF1D0BB
:1031700005FB043303F11005284600F0F3FD3F285A
:10318000E8D93846F178FFF75DFE0028E2D02846FE
:1031900000F0E8FD3F2809D9084A3846F17802EBEB
:1031A000C4124023BDE8F041FFF770BE3846F17805
:1031B000BDE8F041FFF758BEB414002030140020E1
:1031C00010B50446FFF764F908B9002010BDFFF7F9
:1031D00067F90028F9D1C823034803FB04000079EC
:1031E00000F0010010BD00BFB4140020C82208B5D3
:1031F000034B02FB0030103000F09AFD08BD00BF09
:10320000B41400202DE9F8434FF6FE744FF6FF7317
:103210004FF0C808A24298BF13461C4E044608FB54
:103220000065103528469AB200F0F8FD0746FFF712
:103230002FF910B93846BDE8F883FFF731F9814618
:103240000028F7D108FB0466F378002BF2D028465B
:1032500000F088FD3F28EDD94846F178FFF7F2FDF0
:103260000028E7D0284600F07DFD3F2808D9084A0D
:1032700048464023F17802EBC412FFF707FED9E776
:103280004846F178FFF7F0FDD4E700BFB414002002
:10329000301400202DE9F0410546FFF7F9F810B988
:1032A0000020BDE8F081FFF7FBF807460028F7D1C2
:1032B0004FF0C808174E08FB05642434204600F080
:1032C00037FD0028ECD008FB05663846B178FFF7DB
:1032D000B9FD0028E4D040220F4902EBC5150D448A
:1032E0002046294600F09AFD044670B103462A465E
:1032F0003846B178FFF7CAFD50B94FF0E023D3F854
:10330000F03DDB07CCD500BECBE7B178FFF7ACFDD5
:103310002046C6E7B41400203014002038B54FF61C
:10332000FE754FF6FF734FF0C80CAA4298BF1346C4
:103330000B4C9AB20CFB004424340546204600F0A6
:1033400019FE034620461C4600F0F2FC3F2801D837
:10335000204638BD2846FFF79DFF204638BD00BFF8
:10336000B4140020C82208B5034B02FB00302430FF
:1033700000F0F8FC08BD00BFB4140020F0B5002533
:10338000184C83B02946C822204603F065FAFF2373
:103390004FF4E1310822144863710570A160A273F3
:1033A00004F1380101234022009504F1100000F0DF
:1033B0008DFC0123402204F17801009304F1B80749
:1033C00004F1240000F082FC04F1C0063846FDF749
:1033D000E3FA3046FDF7E0FAC4E90757C4E90C65A3
:1033E00003B0F0BDB4140020B0140020064B1A6ADC
:1033F000196B12B10022C3E9072211B10022C3E9FF
:103400000C220120704700BFB4140020002210B528
:103410000E4C0F48237802600271DA0707D59B072C
:103420000BD5BDE8104001210A4800F06DBE1030F8
:1034300000F04EFE23789B07F3D4064800F048FEC8
:10344000BDE810400121034800F05EBEB01400202A
:10345000B4140020D8140020F0B54B7983B0022BAF
:1034600002D18B79022B03D00025284603B0F0BD92
:10347000264FBB783BB14FF0E023D3F8F03DDB079C
:10348000F2D500BEF0E78B7806463B700C78092534
:103490000C44617824290BD1082A02D80FE0AA42F3
:1034A0000DD323781C4461782B4424299DB2F6D097
:1034B00005290AD0042902D163790A2B13D00020F0
:1034C000FFF742FE284603B0F0BD21463046FFF725
:1034D00097FC0028CFD0A3787B7023781C442B4422
:1034E00061789DB2E6E70A4B277801930133009398
:1034F000022330461A46E119FFF734FC0028BAD0FF
:1035000005F10E0317FA83F39DB2D8E7B414002037
:10351000B6140020137803F06003202B08D170B597
:10352000284C938894F800C09C4503D0002070BDBF
:10353000002070475378203B032BF7D8DFE803F0D7
:1035400028240D02012930D003291FD11E4BEBB1D5
:103550000020518800E000BF18E0012925D0032990
:1035600014D15588194805F0010686F0010125712E
:1035700000F0CAFD164B4BB131460020C5F34002A6
:1035800000E000BF012070BD012913D0012070BDF3
:1035900001290FD00329F9D10E4B002BF6D00020C2
:1035A0000D49FEF779FA012070BD1146FFF7A6FC20
:1035B000012070BD11460723074AFFF7B9FC01201F
:1035C00070BD00BFB414002000000000D81400201B
:1035D00000000000991A0010BC1400202DE9F047EB
:1035E000374D0C46EA7807468A421E4655D1DFF829
:1035F000E8809AB2414605F1100000F0BBFC314B67
:10360000C3B16B79FF2B15D0A6B105F1100908EBFA
:10361000060A02E0D0450DD06B7918F8012B9A42CA
:10362000F8D1484600F094FB0028F3D1697900E016
:1036300000BFEFE7244B23B1244800F089FB0028AA
:103640003AD00020FFF780FDAB78A34203D00124DD
:103650002046BDE8F0871E4B13B1002000E000BFFC
:103660000020FFF717FE0028F1D11A4800F060FB98
:103670000028ECD1002EEAD016F03F06E7D13846FC
:10368000A978FFF7DFFB04460028E0D03346324636
:103690003846A978FFF7FAFBDAE7AB788B42DAD045
:1036A0004FF0E023D3F8F04D14F00104D0D000BE69
:1036B00000242046BDE8F08700E000BFC1E700BF5E
:1036C000B41400200000000000000000C41400201A
:1036D00000000000D814002030140020F0B5144C75
:1036E00085B04FF413720021204603F0B5F840274F
:1036F00000234FF480760F4D04F5A672194602950B
:10370000009204F594701A460397019600F0D8F9D8
:10371000002304F128023D44009219460122CDE91C
:1037200002570196201D00F0CBF905B0F0BD00BF97
:10373000981700201817002010B5054C04F5947058
:1037400000F0EAF9201D00F0E7F9012010BD00BFEC
:103750009817002038B50025064C04F598702570A0
:1037600000F0B6FC04F10C0000F0B2FC84F8295122
:10377000657138BD981700202DE9F84F4B79FF2B64
:1037800050D1394D0C7895F829316E790C441E438F
:103790000F4604EB020B45D18B782B700B79002B75
:1037A0003CD0804605F5987905F10C0A6378052B25
:1037B00009D0A34502D831E05C452FD223781C44C0
:1037C0006378052BF8D1A34528D921464046FFF759
:1037D00017FB00283FD0A378DB0926D1484600F02C
:1037E00077FCA37895F8282185F82931A3884046ED
:1037F000C3F30A03A3F50073B3FA83F35B0963F31E
:1038000041021A4985F8282100F0F6F918B33A79EF
:1038100001362178F3B29A420C44C7D8E01B80B23B
:10382000BDE8F88F0020BDE8F88F504600F050FC4E
:10383000A3782A796B71A3880D49C3F30A03A3F512
:103840000073B3FA83F35B0963F3410200202A712A
:1038500000F098F9DBE74FF0E023D3F8F03DDB0709
:10386000E0D500BEDFE700BF98170020C018002099
:103870009C17002070B51C4C064694F829C11D46C3
:103880008C4517D1B4F8343163B9184B23B10020FB
:103890001749AAB200E000BF3046164900F0ACF963
:1038A000012070BDD4F82C11AAB204F5987000F074
:1038B00061FBEAE763798B4201D0002070BD0E4BBB
:1038C0001BB10020A9B200E000BF30460B4900F058
:1038D00059F908B1012070BD2A463046074900F069
:1038E0001DF9012070BD00BF9817002000000000E6
:1038F00018170020C0180020000000009C170020AE
:1039000010B582B0A9B1012808D80B7833B1184C92
:10391000012B235420D0012002B010BD4FF0E02332
:10392000D3F8F03DDA0702D4002002B010BD00BE8B
:10393000FAE70124084601A9ADF80440FEF7B8FDF6
:1039400038B94FF0E023D3F8F03DD907EDD500BEEC
:10395000EBE7074B1C70E8E7FEF7AAFD0028DAD179
:103960004FF0E023D3F8F03DDB07DDD5EFE700BFF4
:10397000F0150020F8B5037813F001041AD103788C
:1039800005465A07C3F3800701D52046F8BD0E4609
:103990004FF0FF31304603F003F82B7813F00104A9
:1039A0000BD12B785B0709D42B78012443F0040357
:1039B0002B7003E000242046F8BD3C46304602F060
:1039C000DFFF2046F8BD00BF70B50D4604464FF03E
:1039D000FF31284602F0E4FF2378C3F380065B073B
:1039E00008D5237813F0010211BF0026237862F373
:1039F00082032370284602F0C3FF304670BD00BF2B
:103A0000C378828803F003000228C2F30A0205D0BB
:103A100003281BD0012807D00020704702291ED0A0
:103A2000402A09D801207047022940F2FF3308BF1D
:103A30004FF480639342F6D24FF0E023D3F8F00DB9
:103A400010F00100EFD000BE0020704702290CBF2B
:103A50004FF4806340239342EED30120E3E7B2F5B5
:103A6000007FDFD0E8E700BF0A44914226D291F8F8
:103A700001C0BCF1050F05D091F800C061448A4235
:103A8000F5D8704700B591F802C00CF07F0E00EB3E
:103A90004E0E4FEADC1C0EF80C3091F800C0614469
:103AA0008A4209D991F801C0BCF1050FEBD091F819
:103AB00000C061448A42F5D85DF804FB704700BF3E
:103AC0002DE9F0418E4682B0009390F800C0089E28
:103AD000BDF824706EF3000C0446154601233146F0
:103AE0003A4600F808CBBDF82C8000F0EFF806B19C
:103AF0003FB901200A9BA4F80280636002B0BDE8D0
:103B0000F08104F11C063046FCF746FF0DB1354646
:103B10000026C4E90556ECE701207047F8B50746D2
:103B2000084640F2FF13154610F8082B0C4612F019
:103B3000020F14BF1E463F2600F0FAF828B925B13F
:103B4000354202D12378DA0701D50020F8BD384686
:103B50006178FFF777F90028F7D0237813F0010395
:103B600007D04FF0E023D3F8F03DDB07EDD500BEE2
:103B7000EBE71A4638466178FFF788F90028F0D05D
:103B8000F8BD00BF70B501F10805064628460C4691
:103B900000F0CEF810B12378D90701D5002070BD10
:103BA00030466178FFF74EF90028F7D02846628842
:103BB000616800F033F92378054648B1DA0710D57B
:103BC0004FF0E023D3F8F03DDB07E7D500BEE5E793
:103BD00013F00105E2D130466178FFF745F9284638
:103BE00070BD0346626830466178FFF74FF90028E0
:103BF000E6D02846F4E700BF8B892DE9F0410C465A
:103C000005462BB90B78DE073DD50020BDE8F081D5
:103C10000E4616F8083B2C4A03F00203002B3046F0
:103C200015BF90466FF03F084FF40077402700F033
:103C300099F88742E9D82378D907E6D428466178ED
:103C4000FFF700F90028E0D0304600F08BF88742FB
:103C500023782BD8DA070ED4668808EA000290B2DF
:103C6000864228BF064661785EB3626833462846BE
:103C7000FFF70CF908BB4FF0E023D3F8F03DDB076A
:103C8000C3D500BEC1E74978FFF7DCF80028BCD0F7
:103C90002378D807EFD46388617883B162682846B7
:103CA000FFF7F4F80028E6D06088AFE713F00106CC
:103CB000ABD128466178FFF7D7F83046A6E71A4619
:103CC000EDE73246D2E700BF00FEFFFF2DE9F041ED
:103CD000B2F5004F9DF8188027D80446C0681746F3
:103CE0000E461D4618B14FF0FF3102F059FE206913
:103CF00018B14FF0FF3102F053FE0022C5F30E035E
:103D0000E06843EAC83362812660A780E3802281AD
:103D100008B102F035FE206920B102F031FE012029
:103D2000BDE8F0810120BDE8F0810020BDE8F08110
:103D3000038942899BB292B28088934236BFC2EB1C
:103D400040029B1A9B189BB2984228BF18467047A6
:103D50000289438990B29BB2C01AB0FA80F0400940
:103D6000704700BF038942899BB2808892B2934218
:103D700036BFC2EB40029B1A9B189BB2984286BF8B
:103D8000C01A80B20020704738B5044600690D465D
:103D900018B14FF0FF3102F003FE2189638989B227
:103DA0009BB2A288994236BFC3EB4200C81A4018A2
:103DB00080B250B3824209D291422CBF891A89182D
:103DC0008BB29A42638103D89B1A9BB29A42FBD969
:103DD000E2882168C2F30E0202FB0311284602F0BA
:103DE000C5FC6189012589B24B1C9BB29942A2880E
:103DF0000ED9002302FA05F15B1A9BB22069638198
:103E000008B102F0BDFD284638BD054663899BB266
:103E1000B3EB420F4FEA4201F0DBEDE72DE9F0474B
:103E2000064600698846914618B14FF0FF3102F00E
:103E3000B7FD338974899BB2A4B2B588A34236BF5B
:103E4000C4EB45071F1BFF18BFB2002F48D0BD426F
:103E50003ED34F4528BF4F46A542BFB203D8641B8F
:103E6000A4B2A542FBD9F2882B1B31689BB2C2F3E6
:103E70000E0C9F42E2460CFB041123D913FB0CF3FA
:103E80001FFA83F94A46404602F070FC7A1B22442E
:103E900012FB0AF2316808EB090092B202F066FCEC
:103EA0007289B58892B2D3199BB29A421AD96A0024
:103EB0009B1A9BB23069738108B102F061FD3846EC
:103EC000BDE8F08740460CFB07F202F04FFCE7E745
:103ED000AB422CBF5B1B5B199CB22F467481B8E7C9
:103EE00073899BB2B3EB450F4FEA4502E2DBDFE794
:103EF000F8B50446C0680E4618B14FF0FF3102F025
:103F00004FFD2589238961899BB289B2A2888B42A2
:103F100036BFC1EB42015B1A5B189BB29A42ADB24D
:103F200008D8E779FF0905D1E06808B102F028FD5B
:103F30003846F8BD95422B4603D39B1A9BB2934259
:103F4000FBD2E2882068C2F30E0202FB0300314676
:103F500002F00CFC6B1CA2889BB29D424FEA42010E
:103F600004D95B1A9BB201272381DDE7B3EB420F33
:103F7000F9DBF6E72DE9F04F144683B0002A5CD058
:103F80000546C0688B4618B14FF0FF3102F008FDBE
:103F9000EA792F896B89D209BFB29BB23BD1AE8837
:103FA0009F4236BFC3EB4603FB1ADB199BB29E420E
:103FB00048D9A6EB03081FFA88F8A04528BFA046F9
:103FC000B5F806A008EB07091FFA89F9BE423C467E
:103FD00003D8A41BA4B2B442FBD2331B28689BB203
:103FE000CAF30E024345924602FB040055D35946DC
:103FF00002FB08F202F0BAFBAA88B9454FEA420375
:1040000002D3B9EB420F03DBA9EB03091FFA89F9CD
:10401000A5F8089018E0B5F8048044451DD3B5F81C
:1040200006A0A4EB0804CAF30E0202FB04BBB8F11D
:10403000000F09D01F464646C4E79046404603B0ED
:10404000BDE8F08F4FF00008E8680028F6D002F0D5
:1040500097FC404603B0BDE8F08F9F4236BFC3EBEC
:104060004802FA1AD21992B24FEA480122448A420F
:104070000ADB03EB08091FFA89F9A9EB0407BFB2B1
:10408000BB421ED97F1ABFB204EB07094646B5F8FA
:1040900006A0A0461FFA89F998E713FB02F35946D8
:1040A0009AB2019202F062FB019A28680BEB0201BE
:1040B000A8EB0602224412FB0AF292B202F056FB6F
:1040C0009AE7B942DEDD4646B5F806A0A0467DE790
:1040D00010B50446C06818B14FF0FF3102F060FC23
:1040E000206918B14FF0FF3102F05AFC0023E0685C
:1040F0006381238108B102F043FC206908B102F01A
:104100003FFC012010BD00BF38B50446C0680D4615
:1041100018B14FF0FF3102F043FC206918B14FF0A5
:10412000FF3102F03DFCE379E06865F3C713E3710A
:1041300008B102F025FC206908B102F021FC012041
:1041400038BD00BF002200B5074B83B001921B6849
:10415000013300D0FEE700F0E1FA019B002BFCD018
:1041600003B05DF804FB00BF6C12002010B500F036
:10417000D5FA044601F01CFC28B14FF0E0234FF0C3
:104180008052C3F8042D2046BDE8104000F0D2BA9A
:104190001F4B93F90030002B08DB4FF050410122F8
:1041A000D1F8880102FA03F3184200D170470020C9
:1041B00010B5184A82B0C1F88C3113680190EFF342
:1041C000108172B6D3E8CFCF0124BCF1000FF9D132
:1041D000C3E84C4FBCF1000FF4D1BFF35F8F0E4B1F
:1041E00014681A681860C4E88F0F81F310880B4BAD
:1041F0000B48196801AB02F0FFF8019B2BB14FF09F
:10420000E0234FF08052C3F8042D02B010BD00BF70
:1042100069120020881E0020385F0020A05F002067
:104220001549001010B504224FF0E024002322614C
:104230000520A361FCF7FEFF0722044BA3FB00301F
:104240008309013B6361226110BD00BFD34D621041
:104250004FF0E0234FF08052C3F8042DBFF34F8F8F
:10426000BFF36F8F704700BF08B500F057FA044ADC
:10427000136801331360BFF34F8FBFF36F8F08BD17
:104280006C120020054B1A682AB11A68013A1A60AC
:10429000186808B17047FEE700F04CBA6C120020B5
:1042A000836913F8023C662B00D0FEE700F018BAD1
:1042B0002DE9F0474FF080744FF010374FF009357B
:1042C00040F8044C4FF0073440E90B57164D40F8C6
:1042D000344C40E903524FF0113C4FF006344FF09C
:1042E000053240E909C340E90F2403464FF0123A72
:1042F0004FF003394FF002384FF0013E4FF00836CF
:104300004FF004356FF0020240E9059A40E907E8F2
:1043100040F8306C40F8405C40F8442C43F8481DAD
:104320001846BDE8F08700BF454100104FF0E0237C
:1043300000204FF07F41F0B585B00290C3F81C1DFE
:10434000D3F81C3D3D4A1B0E8DF807309DF8073011
:1043500003F01003137023B19DF80730DA060AD476
:10436000FEE7FEE7029B013302939DF807305B00F6
:10437000DBB28DF807309DF807301B06F2D4029BA4
:10438000082B51D0029AC2F10702120202F4E06235
:104390004FF0E02300244FF05045012728482949D9
:1043A0000260D3F8202D0E2042F47F02C3F8202DA6
:1043B000D3F8202D244E42F07F42C3F8202DC3F8BD
:1043C0001C4D02F031F821490F2002F02DF8204950
:1043D0000B2002F029F8FFF725FF34601D4B2A68F7
:1043E000394603201A7002F045F803461A4A5BB2B8
:1043F000137007FA03F3C5F88C31FF21C5F8843137
:104400001A20FCF70BFA1A201449FCF7E3F8394696
:104410001A20FCF79BF800F079F901F0D9FA03941F
:104420003368013302D0FEE70022B1E700F076F9ED
:10443000039B002BFCD0002005B0F0BD27600020BE
:10444000205F0020454700106C1200206D410010D5
:10445000B14700106A12002069120020914100103B
:10446000EFF305830F2B06D909490A4A5B5C1278E2
:104470009A4200D9FEE74FF0E023074AD3F80C3DFB
:10448000126803F4E063934200D9FEE7704700BF6F
:10449000F0E300E027600020205F00204FF0504252
:1044A000074B10681B78834200D07047EFF30583F9
:1044B000DBB213B100EB4300704701F033BD00BF26
:1044C0006A12002070B54FF050440122354E364D2F
:1044D00096F800E00668354BA6EB050CA3FB0C53E1
:1044E00024681B0903EB4303ACEBC303A64582B06E
:1044F00002FA03F22CD040BF2D4D03682C68A34272
:1045000042D0D4E8CF6F0123002EFAD1C4E8463F51
:10451000002EF6D1BFF35F8F264C2D68236813431E
:1045200023600023C5E88F3F0368234A92F90020E7
:10453000002A06DB01204FF0504400FA02F2C4F8D2
:1045400080210022C3E88F2F81F3108802B070BD54
:1045500040BF00240368C3E88F4F81F31088EFF356
:104560000583DBB2ABB1154B1548196801AB01945B
:1045700001F042FF019B002BE8D04FF0E0234FF009
:104580008052C3F8042DE1E70A4C20680243226000
:10459000CBE71146094B186802B0BDE8704000F047
:1045A0007FB900BF6A120020D0150020ABAAAAAACA
:1045B000881E0020385F002069120020A05F0020C4
:1045C000154900102DE9F04182B0EFF3058C1CF085
:1045D000FF042CD11E46036805464BB317464FF027
:1045E00050428846304912680978914221D1FCF73F
:1045F000AFFD40F2E733381A66EB0101C01841F114
:104600000001B0F57A7F71F100032BDA00232A68EC
:10461000C2E88F3F88F31088244A536A9E4215D817
:10462000926ABA4210D3012002B0BDE8F081FEE7E1
:10463000FEE7C3E88F4F88F310883846314602B052
:10464000BDE8F041FCF7FCBC9E42ECD14FF0E0230A
:104650004FF08052C3F8042DBFF34F8FBFF36F8F1D
:104660000020E1E74FF47A72002302F0A1F900285C
:10467000CCD02B68C3E88F4F88F3108801220090BC
:1046800028680B492346401A0A49A1FB0041090941
:1046900001EB4101A0EBC101074802FA01F10068FA
:1046A00000F0A0F8B8E700BF6A12002000000B403D
:1046B000D0150020ABAAAAAAA05F002008B5FBF77E
:1046C000F5FE044B044A1844106000F07DF8034BDB
:1046D000186008BDD0150020881E0020A05F0020B3
:1046E000094A1168086806C881F30B88022181F322
:1046F0001488203080F30988BFF36F8F4FF00000DB
:1047000080F31188104700008C1E002062B661B64D
:10471000BFF34F8FBFF36F8F66DF00BFEFF31180E2
:104720004FF0100181F31188BFF34F8FBFF36F8FEC
:10473000704700BF80F31188BFF34F8FBFF36F8FB7
:10474000704700BFEFF30981EFF30B82734621E955
:10475000FC0F55FC084457FC096459FC0A8401E924
:10476000F003124A136819604FF0100181F31188A9
:10477000BFF34F8FBFF36F8F01F02AF94FF00000A6
:1047800080F31188094A116808681838B0E8F00306
:1047900045EC004447EC016449EC0284B0E8FC0FAE
:1047A00082F30B8880F30988184700008C1E0020D4
:1047B0001EF0040F0CBFEFF30880EFF309800149EE
:1047C00008470000A142001010B5182001F0CEFEED
:1047D000044620B1002340F8043B00F0D3F8204603
:1047E00010BD00BF30B12DE9F84311F07F480C46F1
:1047F00001D0FEE7FEE701B9FEE7074616461D4673
:1048000001F096FB10B9089B03B1FEE701F0AEF88A
:10481000D7F8009025B334EA090324D0089B4BB3A2
:10482000002E16BF4FF080784FF080614FF0A061EE
:10483000002D08BF41461A46381D214301F056F9A4
:1048400001F09CF808B9FFF703FD01F0D5FB10F06B
:10485000007F814611D029F07F494846BDE8F883A2
:1048600014EA090FDAD02EB129EA04043C6001F001
:1048700085F8F2E701F082F8EFE7FFF7F5FCD7F8EB
:1048800000904DB914EA090F03D016B129EA0404C7
:104890003C60FFF7F7FCDEE734EA0903F9D1F4E7FF
:1048A00030B12DE9F04111F07F46884601D0FEE796
:1048B000FEE7054601F05AF82B682C6905F10C0754
:1048C00048EA0303A7422B600CD11CE013EA0C0F4B
:1048D00006D0D30148BF46EA0C0601F079FA2B68EE
:1048E000A7420ED020460268646812F0806F43F041
:1048F000007122F07F4CE9D03CEA030EE9D0A742D8
:10490000F0D123EA06032B6001F038F82868BDE8EF
:10491000F08100BF30B12DE9F04111F07F468846AB
:1049200001D0FEE7FEE7054601F020F82B682C6970
:1049300005F10C0748EA0303A7422B600CD11CE0E9
:104940001CEA030F06D0D30148BF46EA0C0601F06B
:104950003FFA2B68A7420ED020460268646812F026
:10496000806F43F0007122F07F4CE9D03CEA030EE7
:10497000E9D0A742F0D123EA06032B60BDE8F0415D
:1049800000F0FCBF4FF0FF31002200F10803C0E946
:104990000131C0E903330260704700BF00230361A7
:1049A000704700BF30B40D686B1C10D000F10803D5
:1049B0001C465B681A68AA42FAD902684B60013249
:1049C00099608C606160086130BC02607047046966
:1049D0006368F2E70346026910B454684068996856
:1049E0009C428160486008BF5160002110685DF8FA
:1049F000044B013819611060704700BF70B515464F
:104A0000026C0446866B2AB905684DB30020013656
:104A1000A66370BD7DB9406801F0A8FE6368226C92
:104A20001344A26863609342F0D32368013628469A
:104A30006360A66370BDC06801F098FE226CE368F5
:104A400051429B1A2268E360934202D2A3680B444E
:104A5000E360022DDAD1012E38BF01260020D7E70E
:104A6000806801F075FA0136A560D1E700B9FEE76C
:104A700070B5A0FB0123044682B0002B35D101FBA9
:104A800000F010F1490F00D9FEE74830019101F024
:104A90006DFD054620B3019929B300F14803C5E92E
:104AA0000F410026FF242B60FFF7DEFB296CEB6B28
:104AB0002A6801FB03F3591A6A6013440A44AE637F
:104AC000AB6005F11000EA6085F8444085F8454088
:104AD000FFF758FF05F12400FFF754FFFFF7D2FB63
:104AE000284602B070BD0346D9E7CDE72DE9F04373
:104AF00085B0019258B1044688461F46002900F04F
:104B00008A80022F04D1E36B012B01D0FEE7FEE780
:104B100001F00EFA0546002800F08280002504F11D
:104B20002406FFF7A1FBA26BE36B9A42C0F0CE8094
:104B3000022F00F0CB800198002800F0DB80002DD0
:104B400000F0C080FFF79EFB00F010FFFFF78CFB2A
:104B500094F84430FF2B04BF002384F8443094F8C9
:104B60004530FF2B04BF002384F84530FFF78AFB54
:104B700002A801A901F09AF9002840F0C080FFF7CF
:104B800073FBA26BE36B9A424FD0FFF77BFBFFF7FF
:104B90006BFB94F8452055B2002D04DC11E06A1E31
:104BA000D3B255B26BB1636A5BB1304601F09EF887
:104BB0000028F4D001F0B0F96A1ED3B255B2002B30
:104BC000F1D1FF2384F84530FFF75CFBFFF74CFB86
:104BD00094F8442055B2002D14DD04F1100903E0CF
:104BE0006A1ED3B255B26BB123695BB1484601F07E
:104BF0007DF80028F4D001F08FF96A1ED3B255B2C7
:104C0000002BF1D1FF2384F84430FFF73BFB00F089
:104C1000B5FE012585E7036C002B3FF472AFFEE77C
:104C2000019B002B3FF47BAFFEE704F11009FFF777
:104C300029FB4846019900F0FDFEFFF715FB94F8AB
:104C400045305DB2002D04DC11E06B1EDAB25DB2BE
:104C50006AB1636A5BB1304601F048F80028F4D0CD
:104C600001F05AF96B1EDAB25DB2002AF1D1FF23CE
:104C700084F84530FFF706FBFFF7F6FA94F8443066
:104C80005DB2002D04DC11E06B1EDAB25DB26AB1D8
:104C900023695BB1484601F029F80028F4D001F0FF
:104CA0003BF96B1EDAB25DB2002AF1D1FF2384F822
:104CB0004430FFF7E7FA00F061FE0028A9D1FFF7C2
:104CC000C7FAA6E702A801F0E5F83BE73A464146F5
:104CD0002046FFF793FE636A3BB900284DD1FFF7EA
:104CE000D1FA012005B0BDE8F08304F1240000F002
:104CF000FDFFF2E70090FFF7C5FA0098F2E7FFF733
:104D0000B3FA94F845305DB2002D10DD04F12406AD
:104D100003E06B1EDAB25DB24AB1636A3BB1304662
:104D200000F0E4FF0028F4D001F0F6F8F1E7FF23EB
:104D300084F84530FFF7A6FAFFF796FA94F8443066
:104D40005DB2002D10DD04F1100603E06B1EDAB237
:104D50005DB24AB123693BB1304600F0C7FF00287D
:104D6000F4D001F0D9F8F1E7FF2384F84430FFF7DD
:104D700089FA00F003FE0020B4E7FFF769FAAEE716
:104D800060B12DE9F04104460E4617461D46B1B10B
:104D9000022D04D1E36B012B15D0FEE7FEE7FFF7F0
:104DA0005FFBFFF7BBFCA26BE36B80469A4210D31C
:104DB00000254046FFF7BEFC2846BDE8F081036CA5
:104DC000002BE5D0FEE7FFF74BFBFFF7A7FC804683
:104DD000A36B2A4694F84550314620466DB2A36B2A
:104DE000FFF70CFE6B1C08D1636A9BB90125404696
:104DF000FFF7A0FC2846BDE8F08100F0D3FD854216
:104E0000F4D27F2D05D06B1C5BB2012584F84530B0
:104E1000CFE7FEE704F1240000F068FF0028E5D0AA
:104E2000002FE3D001231D463B60C2E72DE9F0438C
:104E300085B00192002800F0878004460F460029C3
:104E400000F0838001F074F8002800F08380FFF701
:104E50000BFAA56B002D40F01E81019B002B00F08A
:104E6000CF8002A801F016F8A84604F12406FFF747
:104E700009FA00F07BFDFFF7F7F994F84430FF2BB7
:104E800008BF84F8448094F84530FF2B08BF84F8AD
:104E90004580FFF7F7F901A902A801F007F80028FB
:104EA0005DD1FFF7E1F9A36B002B40F0AF80FFF776
:104EB000E9F93046019900F0BDFDFFF7D5F994F806
:104EC00045305DB2002D04DC11E06B1EDAB25DB23C
:104ED0006AB1636A5BB1304600F008FF0028F4D085
:104EE00001F01AF86B1EDAB25DB2002AF1D1FF238D
:104EF00084F84530FFF7C6F9FFF7B6F994F8443067
:104F00005DB2002D14DD04F1100903E06B1EDAB26E
:104F10005DB26AB123695BB1484600F0E7FE002844
:104F2000F4D000F0F9FF6B1EDAB25DB2002AF1D1C5
:104F3000FF2384F84430FFF7A5F900F01FFD002897
:104F400055D1FFF785F952E0FEE7036C002B3FF4E3
:104F500079AFFEE7019B002B3FF479AFFEE7FFF747
:104F600083F994F845305DB2002D04DC11E06B1E2E
:104F7000DAB25DB26AB1636A5BB1304600F0B6FE88
:104F80000028F4D000F0C8FF6B1EDAB25DB2002A30
:104F9000F1D1FF2384F84530FFF774F9FFF764F986
:104FA00094F844305DB2002D14DD04F1100903E0E3
:104FB0006B1EDAB25DB26AB123695BB1484600F09C
:104FC00095FE0028F4D000F0A7FF6B1EDAB25DB2A8
:104FD000002AF1D1FF2384F84430FFF753F900F0A1
:104FE000CDFCFFF741F9A36B53B1FFF74BF9FFF786
:104FF0003BF9A56B002D4ED1019B002B7FF437AF01
:10500000FFF740F9002005B0BDE8F083FFF73AF95B
:10501000FFF72AF994F845305DB2002D04DC11E069
:105020006B1EDAB25DB26AB1636A5BB1304600F002
:105030005DFE0028F4D000F06FFF6B1EDAB25DB2A7
:10504000002AF1D1FF2384F84530FFF71BF9FFF761
:105050000BF994F844305DB2002D14DD04F1100911
:1050600003E06B1EDAB25DB26AB123695BB14846F8
:1050700000F03CFE0028F4D000F04EFF6B1EDAB2C8
:105080005DB2002AF1D1FF2384F84430FFF7FAF82B
:1050900000F074FCABE7226C5AB1E168A3681144DC
:1050A0009942E16028BF2168384628BFE16001F0DD
:1050B0005DFB2369013DA5631BB9FFF7E3F8012000
:1050C000A1E704F1100000F011FE0028F5D0FFF771
:1050D000BFF8F2E770B505460E461446FFF7C4F870
:1050E00095F84430FF2B04BF002385F8443095F831
:1050F0004530FF2B04BF002385F84530FFF7C2F889
:10510000AB6B002B43D0FFF7AFF895F845305CB29E
:10511000002C14DD05F1240603E0631EDAB25CB254
:105120006AB16B6A5BB1304600F0E0FD0028F4D054
:1051300000F0F2FE631EDAB25CB2002AF1D1FF2366
:1051400085F84530FFF79EF8FFF78EF895F8443064
:105150005CB2002C14DD05F1100603E0631EDAB228
:105160005CB26AB12B695BB1304600F0BFFD00282C
:10517000F4D000F0D1FE631EDAB25CB2002AF1D1A5
:10518000FF2385F84430BDE87040FFF77BB8224626
:10519000314605F1240000F021FDB4E72DE9F84384
:1051A0000446FFF761F83D4A3D4E13680133136032
:1051B0003368002B40D03B4F3B68ABB3E26A3A4DBB
:1051C000012102EB820301FA02F205EB8301D1F81F
:1051D00004C0DFF8EC90DCF80800DFF8E880E0605D
:1051E000D9F800009B000130C9F80000D8F8000091
:1051F000C4F808C00243C8F80020EA58201D02F194
:10520000010EDCF808205060CCF80800616145F818
:1052100003E0FFF737F83B6823B13268E36AD26AEC
:105220009A4211D3BDE8F8833368E26ADB6A1E4D07
:10523000934298BF3460C3E734601368012B07D0F2
:10524000E26A194D174FBBE7BDE8F843FFF700B816
:10525000154D2F4605F1640838461437FFF792FBC9
:10526000B845F9D1DFF86090DFF860804846FFF775
:1052700089FB4046FFF786FB0C48FFF783FB0C4891
:10528000FFF780FB0B48FFF77DFB0B4B054FC3F887
:1052900000900A4BE26AC3F8008091E73C5F00206F
:1052A0008C1E0020DC5F0020A41E0020C85F0020B0
:1052B000FC5F0020E85F0020941E00209C1E002060
:1052C000485F00204C5F0020785F00208C5F00204A
:1052D0002DE9F843244A0546244B2548254E046809
:1052E000D2F80080D3F8009030680F460430FFF702
:1052F00071FB48B9012332681F49D26A03FA02F2EE
:105300000B6823EA02030B606B1C15D03368641929
:1053100031685C600AD240460431FFF743FB174B0B
:105320001A68A24288BF1C60BDE8F8834846BDE801
:10533000F8430431FFF736BB002FE7D0104B30683D
:105340005A68316882609068C8603168906804313A
:105350004160306819683468043001319060196028
:105360006361BDE8F88300BF941E00209C1E0020EE
:10537000106000208C1E00204C5F0020B45F0020D5
:10538000E85F002080B5124D124F134EDFF84C80BD
:1053900014E0FEF769FFFB68DC68201DFFF71AFBCD
:1053A0003368013B33602B68013B2B60FEF76AFFDB
:1053B000206B01F07BF9204601F078F92B68002B77
:1053C000E7D1D8F80030012BF8D9FEF741FFF5E717
:1053D000405F0020FC5F00203C5F0020A41E0020F6
:1053E0002DE9F04F614B85B01C6801341C60002C26
:1053F00079D05F4B03931B689C4279D35D4D2B683A
:105400001B68002B00F0A8804FF0000C5A4B674639
:105410005A485B4E0193029458E0D3F814E0D3E964
:105420000229C2F80890C9F80420DEF804208A4254
:10543000DEF8002008BFCEF80490013A5F61CEF894
:105440000020D3F828E0BEF1000F12D0D3E9079274
:10545000DEF80440C9F808201A6A4445C2F80490EE
:1054600008BFCEF80420DEF800209F62013ACEF893
:1054700000200124DA6AD6F800B002EB820800EBC3
:105480008809D9F804E004FA02FADEF808404AEA8A
:105490000B0ADC6050F82840C6F800A004F1010AAD
:1054A000DEF80840C3F808E06160CEF80810C3F8E1
:1054B0001490019B40F828A019682B68C96A1B68E2
:1054C0008A4288BF4FF0010C002B49D02B68029C08
:1054D000DB68DB685A68191D944203F118089CD2F6
:1054E000039B1A6009E0234B1A681268CAB1FEE7F1
:1054F0004FF0000C204B21480193019B214A1B686F
:105500001268DB6A03EB830350F82330022B28BFB9
:105510004FF0010C002A0CBF6046012005B0BDE829
:10552000F08F194A186811681960184910600A68E4
:1055300001320A601A68126832B94FF0FF330C4A20
:1055400013600392134656E71B68094ADB6803920F
:105550001B68136013464EE79C46074B07480193B0
:105560004FF0FF33039A1360C7E700BF10600020BD
:10557000B45F0020941E00208C1E0020A41E00207A
:105580004C5F00201C6000209C1E0020B85F0020A3
:105590002DE9F04F584F83B03B68013B3B60D7F893
:1055A0000080B8F1000F40F08D80544B1B68002B39
:1055B00000F08880DFF860C1DCF80030002B00F0DC
:1055C00098804FF0010BC2464D4BDFF850E14D4D36
:1055D0000193DCF80C30DB689A6AD3E90701546860
:1055E0008160486003F11800844208BF516011686F
:1055F000C3F828A0013911605869D3E902219160EC
:105600004A6042681E1DB24208BF41600168DA6A02
:105610000139016002EB8200DEF8004005EB8008F2
:10562000D8F804100BFA02F949EA0404CEF8004055
:105630008C689960DC60344C2468D4F82C9055F860
:1056400020404A4504F1010400948C6866608E6035
:10565000C3F81480009B45F820303BD9019BC3F868
:1056600000B0DCF80030002BB3D1284B1A68126868
:10567000002A39D01A68264BD26812681A60254D64
:105680002C68A4B10126DDF8048006E0FFF7A8FE2F
:1056900008B1C8F80060013C08D03B68002BF5D089
:1056A0002B68013C03F101032B60F6D12C60019BB8
:1056B0001B683BB10120144B00901B68FEF7C8FD2E
:1056C000009800E000200090FEF7DCFD009803B099
:1056D000BDE8F08FDCF80030002B7FF47AAF0B4B85
:1056E0001A681268002AC5D14FF0FF32084B1A60C1
:1056F000C5E7034B0193C2E7445F00203C5F0020F5
:105700001C600020A41E00208C1E0020941E00207F
:10571000B45F0020C45F0020C85F00204C5F002001
:105720002DE9F8439700064638460C46984600F0A7
:105730001DFF002869D00546542000F017FF814660
:10574000002866D05422002101F086F8C9F83050B4
:10575000002C56D0237889F834302378002B4DD094
:10576000637889F835306378002B47D0A37889F8BF
:105770003630A378002B41D0E37889F83730E378CE
:10578000002B3BD0237989F838302379002B35D092
:10579000637989F839306379002B2FD0A37989F8A0
:1057A0003A30A37953B3E37989F83B30E3792BB3EB
:1057B000237A89F83C30237A03B3637A89F83D3041
:1057C000637ADBB1A37A89F83E30A37AB3B1E37A86
:1057D00089F83F30E37A8BB1237B89F84030237B13
:1057E00063B1637B89F84130637B3BB1A37B89F86C
:1057F0004230A37B13B1E37B89F84330002389F85F
:105800004330089B042B0BD9FEE74FF0FF30BDE877
:10581000F883284600F04AFF4FF0FF30BDE8F883D8
:10582000C9F82C30C9F8443009F10400FFF7B6F884
:1058300009F11800FFF7B2F8089C3A1F1544C4F1AB
:10584000050443463246D9F83010C9F81090C9F81B
:10585000249025F00700C9F81840FEF729FD099BA0
:10586000C9F800000BB1C3F800904846FFF796FC5A
:105870000120BDE8F88300BFB8B110B50C4C236817
:10588000013323602368012B00D0FEE70021FFF7DE
:105890001FFDFEF7E9FC236833B1FFF779FE30B94D
:1058A000BDE81040FEF7D4BCFEE7FEF7D1BC10BD4A
:1058B000445F002070B54FF4806000F057FE002870
:1058C00041D00546542000F051FE0446002837D050
:1058D00005265422002100F0BFFF1D4B201D6363ED
:1058E000256305F57F75FFF759F825F0070504F1E5
:1058F0001800FFF753F8216B0023164A24616462F5
:10590000A6612846FEF7D4FC0246134B22602046CF
:105910001C60FFF743FC00F031FD0128044613D161
:10592000FEF7FCFE4FF0FF3500220C480C490D4BF2
:1059300005600C601A60FEF7F9FC0B4B1B6870BD2C
:10594000284600F0B3FEFEE70134F6D1FBE700BFC6
:1059500049444C4585530010A85F0020B45F0020E7
:10596000DC5F00201060002070120020024A1368E3
:1059700001331360704700BF445F002008B5FEF795
:1059800073FC044B1B681BB1BDE80840FFF700BE69
:10599000FEE700BF445F0020014B1868704700BF5E
:1059A00010600020014B1868704700BF3C5F00206A
:1059B000054B1B680BB9FFF713BD044A00201368A1
:1059C00001331360704700BF445F0020C45F0020B4
:1059D000134B1B681BB10122124B1A60704711490F
:1059E000114A0B601368B3FA83F3C3F11F030F4A24
:1059F00003EB83039900505802EB830300B9FEE7E1
:105A00005868083140680A449042586008BFD86816
:105A1000C26808BF5860064B1A601B68704700BF19
:105A2000445F00201C6000204C5F0020A41E00206A
:105A30008C1E002050B32DE9F041254D0C462968FD
:105A40001831FEF7AFFF2349234A244B0E6817682D
:105A5000D3F8008028680430FEF7BCFF48B9012362
:105A60002A681F49D26A03FA02F20B6823EA02038A
:105A70000B60631C0BD02B68A41929685C601BD3D6
:105A80004046BDE8F0410431FEF78CBFFEE7154B00
:105A900028685A68296882609068C8602968906898
:105AA00004314160286819682C6804300131906025
:105AB00019606361BDE8F08138460431FEF772FF7A
:105AC000094B1A68944238BF1C60BDE8F08100BFE2
:105AD0008C1E002010600020941E00209C1E0020C0
