:020000041000EA
:10000000002008205D0100101B0100101D010010E0
:100010001101001011010010110100101101001058
:100020001901001019010010190100101F01001022
:10003000110100101901001021010010230100100E
:100040001101001011010010110100101101001028
:100050001101001011010010110100101101001018
:100060001101001011010010110100101101001008
:1000700011010010110100101101001011010010F8
:1000800011010010110100101101001011010010E8
:1000900011010010110100101101001011010010D8
:1000A00011010010110100101101001011010010C8
:1000B00011010010110100101101001011010010B8
:1000C00011010010110100101101001011010010A8
:1000D0001101001011010010110100101101001098
:1000E0001101001011010010110100101101001088
:1000F0001101001011010010110100101101001078
:100100001101001011010010110100101101001067
:10011000EFF30580103800BE00BE00BE00BE00BE7A
:1001200000BE00BEF2EB8871F06200101063001098
:10013000A001001090A31AE7D3DEFFFF42012110B7
:10014000FF01000014760000793512AB4FF000007B
:100150001E49086006C881F3088810474FF05040D8
:10016000006810B14FF00000F2E70DA40ECC00299A
:1001700002D000F012F8F9E71549164A002000E015
:1001800001C19142FCD11449884714498847144958
:10019000884700BEFDE701C901C29A42FBD3704700
:1001A00010630010100100204C1500204C77001047
:1001B00000000820000008204C77001000100820E4
:1001C00000100820000000007047000008ED00E06B
:1001D0004C1500207C2100206D2F0010F50200102E
:1001E000652F0010F8B500BF10B5054C237833B962
:1001F000044B13B1044800E000BF0123237010BD7D
:10020000D816002000000000005F001008B5034B66
:100210001BB10349034800E000BF08BD0000000017
:10022000DC160020005F00102DE9F84F4FF0504A17
:10023000DAF850302DED028BDA0734D50FF2800951
:10024000D9E9008920A7D7E900679FED1B8A002420
:10025000DFF87CB0194D05F061FC80B207EE900A22
:10026000F8EEE77A67EE887A17EE900A05F0CCFD93
:1002700042464B4601F0C6FA32463B4601F0FCFAD4
:1002800002460B462046294601F0BCFA01F042FB2B
:1002900005F0BAFD02460B46584603F049F8DAF875
:1002A0005030DB07D7D4BDEC028B4FF05043FF2218
:1002B0001A65BDE8F88F00BF3333533A00003B4066
:1002C000643BDF4F8D97E63F7FC2D9AD65325C3F1F
:1002D000005F001008B5FF224FF050431920044979
:1002E0001A6500F059F90121192000F011F9FEE713
:1002F0002902001070B502F05DFF0F4805F060FCA8
:1003000005F0E2FB022304260C4D0D4C2B60236804
:100310000C4A83F4804303F4704313602E60236817
:10032000DB05FCD5606880B205F0F0FB4FF47A7015
:1003300000F0AEFEF2E700BFD502001000200A4038
:1003400000000A4000100A400FB400B583B0049CBE
:10035000074802F06FFF3CB105A92046019102F069
:10036000E7FD044802F066FF012002F0F9FD00BF3E
:10037000185F0010285F001070B5EFF3108572B69B
:10038000134CD4E8CFCF0126BCF1000FF9D1C4E85B
:100390004C6FBCF1000FF4D1BFF35F8F4FF0010C35
:1003A0004FEAD10E01F007030CFA03F310F80EC068
:1003B0001CEA030608D14CEA030300F80E30C4E837
:1003C0008F6F85F3108870BD1046FFF7BDFF00BF2B
:1003D000A3180020F8B5EFF3108572B6234CD4E8CB
:1003E000CF7F0126002FFAD1C4E8476F002FF6D146
:1003F000BFF35F8F9A4227D80126D70810F807E08D
:1004000002F0070C06FA0CFC1EEA0C0F00EBD207F8
:100410000DD125E04FEAD20E10F80EE002F0070CE5
:1004200006FA0CFC1EEA0C0F00EBD20718D00132C2
:100430009342EFD24FF0FF300023C4E88F3F85F3A3
:100440001088984207DBF8BD0023C4E88F3F85F38E
:1004500010884FF0FF300029F5D00698FFF774FFA1
:100460004EEA0C0C104687F800C0E5E7A318002000
:10047000044A1078431CDBB2172B88BF102313707B
:10048000704700BFA014002010B5054C82B0014693
:100490001F23182200940348FFF79CFF02B010BDF1
:1004A0002C5F0010B41C00204FF0E022936843F052
:1004B00000539360704700BF0021044B03F12002FA
:1004C000C3E88F1F01339342FAD170479818002078
:1004D0004FF0E0234FF08032C3F80024C3F8042427
:1004E000C3F80824C3F80C24C3F81024C3F8142458
:1004F000C3F81824C3F81C24C3F82024C3F8242408
:10050000C3F82824C3F82C24C3F8302462B67047FB
:10051000012300F01F029340400941B1800000F127
:10052000604000F56140C0F8803103607047024AC6
:10053000203042F82030704700E100E00123064AF5
:10054000410952F8212000F01F0003FA00F0104288
:1005500014BF18460020704700E100E00122430963
:10056000044900F01F0002FA00F0403341F8230074
:10057000704700BF00E100E0054A10309268054B6B
:1005800052F82000C01A2F288CBF0020012070478D
:1005900000ED00E0A4140020F8B50D46EFF310873D
:1005A00072B6124ED6E8CF2F0123002AFAD1C6E840
:1005B000423F002AF6D1BFF35F8F0D4B00F11004CC
:1005C0009B680C4A53F82430934203D0994201D0DF
:1005D00000F08AFF064B9B6843F82450BFF35F8FFF
:1005E0000023C6E88F3F87F31088F8BDA1180020CC
:1005F00000ED00E0110100102DE9F04F80468B4620
:10060000174683B0EFF3108372B6DFF8D0A10093E2
:10061000DAE8CF1F01230029FAD1CAE8413F0029B7
:10062000F6D1BFF35F8F664E96F90050002DC0F2F1
:10063000A080644C05EB450304EB8300817908F14D
:100640001008317060499B008968994651F828E08C
:100650000646AEEB04012F294FEA450231D95B4B28
:100660009E4540F0A2805A4B09F10209A144043B87
:10067000A3EB0903C3F34A036FEAC3434FF42141D9
:100680006FEAD343154424F8251004EB85056B80ED
:100690004BF60153AB80FF2346F0010EEF71C5F816
:1006A00008B0AB71484B9B6843F828E0BFF35F8FFD
:1006B0000023CAE88F3F009B83F3108803B0BDE896
:1006C000F08F2EF0010191F807C0BC452BD84FF4F4
:1006D0002146E6523E4B09F102062644043B09F14D
:1006E00004099B1BA1440E1FC771A6EB0906394FD5
:1006F000C6F34A063E438680C3F34A03364E3B4365
:1007000043804AF6AA250B461B1B5B415D432D0D1A
:10071000C0F808B0857140F0010E0E60C2E7C079E4
:10072000B8422BD9614691F9063003EB430004EB44
:100730008000002B8446F2DA4BF6015001930B1D2A
:10074000043EF61AC6F34A066FEAC6466FEAD64674
:1007500002EB050CDFF88090019B8D7104EB8C059A
:100760008E8044F82C90A880AB71EF71C5F808B06A
:1007700098E700F0B9FE96F900505AE7888801938F
:10078000400501F1040315D44FEA605C6FF00700E7
:100790000CF1020CA0EB090003EB4C0C001B6044B5
:1007A000C0F34A0040F46040CAE7019200F09CFEAA
:1007B000019A58E700F5FF1000F5FF501F30E3E7FE
:1007C00074210020A414002000ED00E011010010AD
:1007D000D414002000E0FFFF01488047A11800204A
:1007E000F0B5EFF30585EDB2EFF3108C72B6264944
:1007F000D1E8CF2F0123002AFAD1C1E8423F002AD5
:10080000F6D1BFF35F8F214E40F0010EB4684AF677
:10081000AA2354F825701E4A0446A41A644163436F
:100820001B0D77455BB21BD092F906409C421CD051
:1008300092F912409C4223D092F91E409C4221D052
:1008400092F92A409C4208BF03240FD0114A002489
:10085000157813708571C1E88F4F8CF31088F0BD47
:10086000B2680D4C42F82540F0E7002404EB440444
:1008700002EB8402FF2494714BF601549480E5E767
:100880000124F3E70224F1E7A118002000ED00E0C5
:10089000A4140020742100201101001010B5074C91
:1008A00082B001460523002200940548FFF792FD1F
:1008B0000028A8BFC0F1330002B010BD485F00108F
:1008C00078210020014B19440160704798180020DE
:1008D000F8B5124D124EB5421FD22C462368FF27A1
:1008E0007BB1FFF7C5FD01462846FFF7EBFFA78068
:1008F000BFF35F8F0834B4420FD223682546002B24
:10090000EFD1FFF7B5FD01462846FFF7DBFF277162
:10091000BFF35F8F0834B442EFD3F8BD3C1500201D
:100920004C15002010B50446FFF7A2FD01462046F5
:10093000FFF7C8FFFF232371BFF35F8F10BD00BF18
:1009400010B504460120FFF79FFD034B18442060BB
:10095000BFF35F8F10BD00BF98180020024B1944F1
:100960000160BFF35F8F7047981800200D4B1A6825
:10097000EFF3108172B6D2E8CFCF0120BCF1000FA7
:10098000F9D1C2E84C0FBCF1000FF4D1BFF35F8F77
:1009900000221B68C3E88F2F81F3108840BF00201E
:1009A00000217047542100202DE9F04F2DED028BDE
:1009B00085B0EFF30583DBB2103B9A0818BF012224
:1009C0004FF0010103F00300AD4B00EB82020CBFBE
:1009D000AC4FAD4F53F8226001FA00F207F54153D6
:1009E0009FEDA58BB046019000925A6035E0B8F8B3
:1009F00004301B0440F1928098F80630002B40F040
:100A0000DF80B8F90820002AC0F22581D8F8143018
:100A100002EB420203EBC202D2E90245B5F1FF3F0D
:100A200008BFB4F1FF3F0DD0019B07EB8301BB6A08
:100A30000A69D21AE31A934203D33B6A009A13421B
:100A400000D10C61384600F0B5FB201A65EB0105BA
:100A5000012875F1000380F2FE80B8F90840009B80
:100A6000002CFB63C3DBD8F814A004EB440B38461E
:100A70000AEBCB05D5E9029600F09CFB484561EBFB
:100A800006010029B3DB002EC0F2C3802B697F4A28
:100A9000934200F0FD806A88B8F9080092B242EAF9
:100AA00000406969984702460B4652EA030100F08C
:100AB000B080002B80F2D580B9EB020066EB030317
:100AC000C5E902033AF93B50002D90DBD8F814C079
:100AD00005EB45010CEBC1018A68821ACA6863EB19
:100AE0000202002A83DBA8F8085007E09568451B3E
:100AF000D56863EB0505002D08DB1146B1F90060F0
:100B000006EB4602002E0CEBC202EFDA2AF83B603D
:100B10000C80B8F804301B043FF56EAFD8F81030E5
:100B2000EFF3108272B6D3E8CF0F01210028FAD17B
:100B3000C3E8401F0028F6D1BFF35F8F4FF6FF7068
:100B4000B8F804900023D8F810100FFA89F9A8F823
:100B50000400C1E88F3F82F310889945FFF64CAF3F
:100B6000BA46D8F8145008F1080B09EB490E05EB0A
:100B7000CE03D3E90267B8F90830DC46002B05DA6A
:100B80000FE035F934308446002B0ADB03EB4304D5
:100B900005EBC400D0E90212711A67EB0202002AC9
:100BA000EFDAACF8009035F93E9025F83E30B9F117
:100BB000000FDADA98F806305746002B3FF421AFE1
:100BC000002388F80630B8F9083008F1080C5E1CDC
:100BD00041D01A46D8F8144003E08446591C3FF42B
:100BE00012AF03EB430104EBC10045881E462D0400
:100BF00034F93130F1D5964280ED028BEED0ACF86D
:100C00000030B8F8082024F831203246A8F80860EF
:100C1000E4E73AF83B30A8F80830D8F81030EFF3A2
:100C2000108272B6D3E8CF0F01210028FAD1C3E8B1
:100C3000401F0028F6D1BFF35F8FB8F80230D8F814
:100C400010102AF83B300023A8F80240C1E88F3F7B
:100C500082F31088CBE640BF05B0BDEC028BBDE847
:100C6000F08F3846CDE9022300F0A4FA029A039BE4
:100C7000801843EB010323E7FFFFFFFFFFFFFFFFA8
:100C80002C21002000000B4000800B40A90900101F
:100C90006B6918461A69029390470028B9D0029BE5
:100CA000D3E9002301E700BF2DE9F84F364C256951
:100CB0002DB1BDE8F84F0A213448FFF703BEDFF835
:100CC000E48003260321404600F062FAC4F80C8059
:100CD000FFF7CEFB4FF0504C2D4B26701844DCF83C
:100CE00000300F216370636961801D834FF004053C
:100CF000A3F878504FF00505A3F890504FF0060583
:100D0000A3F8A8504FF007050E21206108274FF6E1
:100D1000FF724FF00A0EA3F8C0504FF001094FF0D8
:100D20000C0C4FF0020B4FF0090A0D204FF00B0591
:100D3000A3F868111749A280A3F808E1A160A3F8FD
:100D400048B0A3F8F0A0A3F82051A3F838C1A3F845
:100D50005001A3F83090A3F86060A3F8D8701A800F
:100D60000D4B3046C8F820700C49DC60FFF714FCCE
:100D700049463046FFF7CCFB094B0A211F60034868
:100D8000BDE8F84FFFF79EBDEC1400205421002071
:100D900098180020FFFF10002C210020A909001046
:100DA00040200B4000000B4000487047EC1400202E
:100DB0002DE9F0419DF82050044617461E4635B9EE
:100DC00000F000FA874266EB0101002957DB216938
:100DD000EFF3108072B6D1E8CF2F0123002AFAD1A9
:100DE000C1E8423F002AF6D1BFF35F8FB4F9022079
:100DF000D4F814C002EB4201002A4FEAC10E0CEBFA
:100E0000C10102DB3CF80E3063804FF0000823691B
:100E1000C3E88F8F80F31088424533DB4888069BF8
:100E20000130C0F30E00012838BF01200B61079B81
:100E300048804B61C1E9027640EA02402369EFF342
:100E4000108172B6D3E8CF6F0125002EFAD1C3E826
:100E5000465F002EF6D1BFF35F8FA3882CF80E30CB
:100E6000A2802369C3E88F8F81F310880122E36891
:100E7000217803F501538A405A60BDE8F081284685
:100E8000BDE8F0814FF0FF30F7E700BF0146F0B555
:100E90000069EFF3108772B6D0E8CF5F0124002D10
:100EA000FAD1C0E8454F002DF6D1BFF35F8FB1F9FD
:100EB00002E04C690EEB4E0C4FEACC06BEF1000F7F
:100EC000A8BFA05B4FF00005A8BF488004EBCC0C86
:100ED0000869C0E88F5F87F31088AE4535DBBCF842
:100EE0000200CCE902230130C0F30E00012838BF14
:100EF0000120059BACF80200CCF81030069B40EABC
:100F00000E40CCF814300B69EFF3108272B6D3E8C0
:100F1000CFCF0127BCF1000FF9D1C3E84C7FBCF162
:100F2000000FF4D1BFF35F8F8B88A353A1F804E0C7
:100F30000B69C3E88F5F82F310880122CB680978C0
:100F400003F501538A405A60F0BD4FF0FF30F0BD09
:100F50004289B2EB214F38DD42690B1403EB4303A6
:100F600010B502EBC3030469EFF3108C72B6D4E83A
:100F7000CFEF0122BEF1000FF9D1C4E84E2FBEF130
:100F8000000FF4D1BFF35F8F5A8889B292B28A42C0
:100F900007D000230269C2E88F3F8CF310881846FF
:100FA00010BD42F400425A8001230022016983717E
:100FB000C1E88F2F8CF31088C268017802F50152C6
:100FC00003FA01F11846516010BD0020704700BFC0
:100FD000407870472DE9F041861F41F1FF35B0425E
:100FE00071EB050338BF002682B038BF3546044692
:100FF0000F4600F0E7F8301A65EB0101012871F1A6
:10100000000306DA2046394602B0BDE8F04100F0A0
:10101000E3B800F0D7F8864265EB010100290ADB4E
:101020000021174B3246009316482B460191FFF7DB
:101030002DFF0028E6DB4FF0000C1348134A436AEB
:101040009D4204D8816AB142DCD29D42DAD1136854
:10105000EFF3108172B6D3E8CF8F5FF0010EB8F1D5
:10106000000FF8D1C3E848EFB8F1000FF3D1BFF398
:101070005F8F1368C3E88FCF81F3108820BFDEE74E
:101080006D090010EC14002000000B4054210020DA
:1010900010B5044600F096F84FF47A73E4FB0301B0
:1010A000BDE810400029BCBF4FF0FF306FF0004199
:1010B000FFF790BF2DE9F04307460E4683B0EFF3EC
:1010C0000584E4B274B12F4B586A884203D20020E1
:1010D00003B0BDE8F0839B6ABB4248D3012003B054
:1010E000BDE8F083284DD5F80C9095F8008048466F
:1010F00000F060F808F1040859F828301B1A381A73
:1011000066EB0101984271F100030DDB20BF1D4B1E
:10111000586A8642DBD89B6ABB42DFD2301A18BFBE
:10112000012003B0BDE8F08300F04CF8874266EB85
:101130000101002913DB154B2846CDE900343A465E
:101140003346FFF7A3FE011E09DD0E4B5A6A964295
:1011500015D89B6ABB4210D30B48FFF7F9FE094B29
:10116000586A8642B3D89B6ABB42B7D2D6E7401AC8
:1011700018BF012003B0BDE8F0839642ECD120BF38
:10118000EAE700BF00000B40EC1400206D090010DE
:1011900010B4054B054C064AA04214BF1846581C13
:1011A0005DF8044BFFF7E8B8B81C002000800B4046
:1011B000645F0010416A0B46826A416A8B42FAD131
:1011C00010467047034B596A0A46986A596A914219
:1011D000FAD1704700000B40074A536A9942FCD885
:1011E000994207D1044B02E05A6A914202D19A6AAD
:1011F0008242F9D3704700BF00000B4000EB400C67
:101200004FEA8C0C0CF1804C0CF5803C70B5DCF88E
:101210000440A0F1040EB4F5803F38BF4FF4803491
:101220005FFA8EFE38BFCCF80440BEF1010F29D919
:101230004FF40066244D0CF54054266055F82060AC
:10124000BEB9DCF800400CF5805684EA421202F088
:10125000E002BEF1010F326028D94FF4006145F879
:1012600020304FF480330CF500521160CCF804307C
:1012700070BD6C69B4FBF6F4013404EB4404033C28
:10128000FDD2DEE70129D3D103250CF540542560BA
:10129000DCF80840E407FBD5DCF800400CF580568C
:1012A00084EA421202F0E002074D32600122DCF8CB
:1012B00000404C4004F00304346002FA01F1DCF811
:1012C00008200A42FBD0C8E7BC1C0020014B53F8A1
:1012D00020007047BC1C002070B4039C05682403E8
:1012E00044EA03431B4C002DB4FBF1F4B2FBF4F2CF
:1012F0001FDB194D194CA8420CBF4FF400454FF4A9
:101300008045174E256004F580542560B46835EAA1
:101310000404FBD1212500F54054043401608260AF
:1013200025600268002AFCDA0822C360226070BCD3
:101330007047046804F03F048C42DAD18468C4F337
:101340000B049442D5D1C46804F4EE249C42D0D15D
:10135000EDE700BF001BB700008005400020024001
:101360000000024030B44FF080441D4B1C60E0B1DF
:101370001C4CA3F54053DC611B4C40F00100444081
:101380001C62596298624FF080454FF0E061144B47
:101390001648174C1D60846019604AB930BC4FF084
:1013A0000042A3F580531A607047124BD861EAE7F8
:1013B0004FF47A7303FB02F2B2F1807F09D20E4B35
:1013C0001A604FF0804130BC0A480C4B42601960F3
:1013D00070476FF07F4308491A460B60F1E700BF82
:1013E00000B00D40D3C007B02D3FF84F00A0014022
:1013F000F3FFFF0100800D401C21002000A00D40E4
:10140000012300EB4000800000F1804000F58410D3
:1014100041600360704700BF10B5002482B00B46E6
:10142000E48A002141E800F1CDE900034B0254BFFA
:101430001021042144F25220A047DDE90023864612
:101440000A214FF48170F44602B0BDE810406047B5
:101450000023DB8A002242E800F2520201D410216C
:1014600018470421184700BF08B50B46011E02DBD0
:1014700022B143F030031846FFF7CEFF43F02003BC
:10148000F9E700BF034AD2F82838002BFBD0BFF39E
:101490005F8F704700000E400021044B044ABFF3E9
:1014A0005F8F43F8041B9342F9D170470C080E403C
:1014B0002C080E4010B44FF48D704FF42A64064A85
:1014C000064B07491460D06019605368002BFCDAA2
:1014D0005DF8044B704700BF0080044000A004404A
:1014E00000B0FA00704700BF08B50148FEF72CFFB6
:1014F000885F001038B5054C054DAC4204D254F855
:10150000043B9847AC42FAD338BD00BFB85E001028
:10151000F85E001038B5054C054DAC4204D254F8C5
:10152000043B9847AC42FAD338BD00BFE45E0010DC
:10153000F85E001010B40748074C084B084A0949E8
:1015400004601A608B6832EA0303FBD15DF8044B38
:10155000704700BF002002407F3BEFEF00300240A9
:10156000F6FFF30300000240044BDB6CB3F5004FC1
:1015700003D14FF48022024BDA647047000011500F
:10158000002011504FF0E022044BD2F8881D0B438D
:10159000C2F8883D10EE3004704700BF03033000EE
:1015A0006FF06041044B054A19609368DB4333F0E8
:1015B0006043FAD1704700BF003002400000024093
:1015C00010B545F25320FFF743FFBDE81040034636
:1015D0000420184710B545F25320FFF739FFBDE846
:1015E0001040034601201847FEF766BF70B52E492C
:1015F0002E4C2F4E641AA510442D2A4628BF442293
:101600003046920004F0FEFAB4F5867F47D805F123
:10161000010CBCF1440FC5F143013444C5F1440051
:1016200088BF012005296346224AC4F3800418D9E3
:10163000BCF1440F15D8ACB346F82520001B2C4450
:1016400006EB8403410803EBC101C3E90022083320
:101650009942FAD120F0010398420CEB03051ED009
:101660006B1C442B46F8252019D0422D46F8232028
:1016700005F1020313D0412D46F8232005F10303A1
:101680000DD0402D46F8232005F1040307D03F2D4F
:1016900046F8232005F1050301D046F82320064B28
:1016A0009E6070BDAC46C9E700000010100100103C
:1016B000000000201101001000ED00E00023F0B553
:1016C0002B4C83B0C4F88430FFF7F4FE0122294B81
:1016D000DA63636C012BFCD10321264A244B11638E
:1016E0009D6B012DFCD1052302271E4600242946AF
:1016F000214A22480097FFF7EFFD29463346204A4A
:1017000020480096FFF7E8FD3946224604201E4B8C
:10171000FFF774FD2946224630461C4BFFF76EFD4D
:101720002246082021461A4BFFF768FD2246092071
:101730002146174BFFF762FD224606202146134B38
:10174000FFF75CFD114B224607202146FFF756FDAF
:101750000420FFF7BBFD0F4DA5FB0035AD0CE0B23B
:1017600029460134FFF74CFE062CF8D103B0F0BD3A
:101770000000014000300140002F68590000054082
:10178000008C864700800540001BB70080D1F00820
:10179000006CDC0283DE1B4386B003B451FC0804FA
:1017A000CDE9020151FC0904CDE9040151EC0A0420
:1017B000CDE9060103BCF047BDE800504EEC00C483
:1017C000BDE800504EEC01C4BDE800504EEC02C430
:1017D00000BD000000B5FFF7DFFF02E010FE30F4AF
:1017E000F8D441EC100443EC112400EE010410EE97
:1017F000010480EE200451EC1004704700B5FFF79F
:10180000CBFF02E010FE30F4F8D441EC100443ECBE
:10181000112400EE010410EE210480EE200451ECAE
:101820003004704700B5FFF7B7FF02E010FE30F458
:10183000F8D410B541EC100443EC112451EC04042D
:1018400053EC0524A0FB024C5FF0000EE0FB03CE3E
:10185000E1FB02CE4CEC20440024E1FB03E444EC29
:1018600030E480EE200451EC5004BDE81040704795
:1018700000B5FFF791FF02E010FE30F4F8D441EC20
:10188000100443EC112451EC2104A0FB01126FEA77
:10189000820252FB100052FB12F252FB1000A0EB2E
:1018A000D07C53EC04245CFB13F153EC1524A1FB16
:1018B000022001FB030053EC4424A2EB000050FB88
:1018C0001CF24FEA111312EB017043EBE27140EA94
:1018D000515020EA915020F0070053EC7524A0FBF2
:1018E000023C53EC752400FB03CC01FB02CC53EC0F
:1018F0000424ACEB824C40EA5C70A0F1010041ECA6
:10190000400480EE200451EC7004704700B5FFF7EE
:1019100043FF02E010FE30F4F8D441EC100480EEF6
:10192000220410EEB204704700B5FFF735FF02E065
:1019300010FE30F4F8D440EC700400EE010410EE18
:10194000210480EE200451EC3004704700B5FFF70D
:1019500023FF02E010FE30F4F8D440EC600400EE07
:10196000010410EE210480EE200451EC3004704795
:1019700000B5FFF711FF02E010FE30F4F8D441EC9F
:10198000800400EE010410EE010480EE400410EE2D
:101990001304704700B5FFF7FFFE02E010FE30F4BD
:1019A000F8D441EC800400EE010410EE010480EE56
:1019B000400410EE3304704700B5FFF7EDFE02E07F
:1019C00010FE30F4F8D441EC100443EC112400EE86
:1019D000010410EE3004C0F30070704700B5FFF74B
:1019E000DBFE02E010FE30F4F8D443EC102441ECAE
:1019F000110400EE010410EE30F48CBF0120002031
:101A0000704700BF00B5FFF7C7FE02E010FE30F4DC
:101A1000F8D443EC102441EC110400EE010410EE64
:101A200030F42CBF01200020704700BF00B5FFF745
:101A3000B3FE02E010FE30F4F8D441EC100443ECA5
:101A4000112400EE010410EE30F42CBF0120002020
:101A5000704700BF00B5FFF79FFE02E010FE30F4B4
:101A6000F8D441EC100443EC112400EE010410EE14
:101A700030F48CBF01200020704700BF704700BFCA
:101A80002DE9F84F9A460D9B17469A0706468B4656
:101A9000DDF8288011D1DDE90B3293420DD21346D7
:101AA0003C460B9A9D1A3D442246534659462020F7
:101AB0000134B047AC42F7D100E03D460B9B73B117
:101AC00008EB030404EB0509A9EB040214F8010D6B
:101AD00053465946B0474445F6D10B9B1D440D9BD8
:101AE0009B070ED50C9BEF1BBB420AD91C462A460E
:101AF0005346594620200137B047BC4205F1010545
:101B0000F5D82846BDE8F88F2DE9F04F0F9EDDF897
:101B100024E016F0020F0A9C9DF82C900E9DDDE942
:101B20000C872CD1002D74D1BC4206F0010B80F043
:101B3000CB801F2C88BF202400F2C68004F1FF3C1C
:101B40004FF0300AF44401E0202C04D00134A742C5
:101B50000CF801AFF8D8BBF1000F10D0A5420ED998
:101B6000202C2DD004F1FF3C4FF0300AF44401E06A
:101B7000202C25D00134AC420CF801AFF8D116F07E
:101B8000100F38D016F4806F26D10CBBB8F1100FAF
:101B90007FD0B8F1020F00F0928030248EF8004020
:101BA0000124B9F1000F2BD02D270EF80470013459
:101BB000CDE90B56CDE909E4BDE8F04FFFF760BF72
:101BC00016F0100F4FF02004F2D016F4806F03D1FE
:101BD000A74249D0A54247D0B8F1100F4ED0B8F176
:101BE000020F39D0202CE3D04FF0300C0EEB04075D
:101BF00087F800C00134202CDAD0B9F1000FD3D11E
:101C000077071DD43707D3D520270EF80470013489
:101C1000CEE716F0010B0DD0B9F1000F22D116F06E
:101C20000C0F1FD1BC4299D21F2C87D9202DC7D8A9
:101C30002024A4E7BC42A2D21F2C7FF67FAFF7E797
:101C40002B270EF804700134CDE90B56CDE909E4D9
:101C5000BDE8F04FFFF714BF202CA9D00EEB04070E
:101C6000013440E0013DDDE7671E8FD0B8F1100F71
:101C70002FD0B8F1020F35D03C46B5E7B7060FD4E8
:101C8000202C95D00EEB040C013478278CF80070D2
:101C9000A8E7B4060ED478248EF800400124A3E708
:101CA000202C85D04FF0580C0EEB040787F800C0AD
:101CB000013497E758248EF80040012494E7622409
:101CC0008EF8004001248FE7BBF1000F08BF00250C
:101CD00055E716F0200FA4F10204E3D10EEB040C3B
:101CE0003C46D2E777444FF0620C87F800C079E7B2
:101CF00000B9704701F060BA10B1D1E9003118475E
:101D0000704700BF000000002DE9F04F2DED048B5F
:101D10009BB02A9CDDE9288909942B9C83461D46AB
:101D20000D940C920C4642464B4640464946DDF81F
:101D3000B0A0FFF745FE002840F0D6804046494657
:101D40004FF0FF32744BFFF789FE002840F0CC8043
:101D5000404649464FF0FF326FF48013FFF742FED2
:101D6000002840F0C1804046494600220023FFF78A
:101D700039FE002840F0C181CDE90A89DDE90A2356
:101D80001F461AF4806316461193099B08BF062369
:101D9000099356EA070340F0C3801AF4006E00F07E
:101DA000A4819FED5B7B00238DED0E7B1093099B3F
:101DB000109A00269342D2BF0023A3EB020E0EF12D
:101DC000FF3309934AF4806A10960D9BB34294BF87
:101DD00000279F1B1AF00203119302D0002E18BF98
:101DE0000027109B3BB1DDE90A01DDE90E23FFF777
:101DF00043FDCDE90A014046494600220023FFF792
:101E0000F1FD30B1DDE90A01024601F10043CDE9FF
:101E10000A239DED0A7B099B8DED007B02932AF43A
:101E20000063049321462B4658460C9A039700F012
:101E30009BF98046002E51D01AF0200F424614BF65
:101E4000452065202B462146D847109A0DF1480CB5
:101E500082EAE273A3EBE2734FEAD27E0027624686
:101E60001846DFF8B89008F1010806F1FF3A01E0E2
:101E7000202F0FD00646A9FB0031C90801EB8103D2
:101E8000A0EB43033033092E084607F1010702F89F
:101E9000013BEDD80523002006930A234246CDE9F5
:101EA000033021462B465846CDE9017ECDF814A0DB
:101EB000CDF800C0FFF728FE119B804673B10C9B44
:101EC0000D9FC61AB74209D942462B46214620200B
:101ED0000136D847B74208F10108F5D840461BB093
:101EE000BDEC048BBDE8F08F0D9B21462B9358462B
:101EF0002B46099C0C9ACDE92889CDF8B0A02A94EC
:101F00001BB0BDEC048BBDE8F04F00F02DB900BF55
:101F10000000000000000000FFFFEF7FCDCCCCCC24
:101F2000C7F30A50A0F2FF30FFF702FD8AA3D3E9FE
:101F30000023FFF77BFC8AA3D3E90023FFF74EFCC5
:101F4000C7F3130341EC180B43F07F5130460022D6
:101F50007B4B41F44011FFF755FC6BA3D3E9002301
:101F6000FFF764FC02460B4651EC180BFFF736FCFA
:101F7000FFF702FD1090FFF7DBFC65A3D3E9002318
:101F800006460F46FFF752FC00226E4BFFF726FC79
:101F9000FFF7F2FC0346394630460E935EA3D3E9C1
:101FA0000023FFF743FC06460E980F46FFF7C0FCE0
:101FB0005BA3D3E90023FFF739FC02460B4630460A
:101FC0003946FFF71FFC02460B4606460F46FFF751
:101FD0002DFC324641EC180B3B4630463946FFF7A4
:101FE000FDFB002241EC190B574B51EC180BFFF78E
:101FF00043FC0022554BFFF7F1FB02460B4651EC28
:10200000180BFFF739FC0022514BFFF7E7FB0246A4
:102010000B4651EC180BFFF72FFC32463B460646A9
:102020000F4600204FF08041FFF7ECFB02460B46C5
:1020300030463946FFF7D2FB02460B4651EC190BEE
:10204000FFF71AFC0022434BFFF7C8FB0E9B002250
:1020500003F2FF363305FFF7E9FB06460F46DDE9DD
:102060000A0132463B46CDE90E67FFF7BBFC60BB79
:1020700031463A46109B6333C72B34BF04260526EE
:102080001AF4006F3FF4A1AE51EA02033FF48FAEA1
:10209000DDE90A0124A3D3E90023FFF7CBFC48B113
:1020A000DDE90A0122A3D3E90023FFF79BFC002806
:1020B0007FF47DAE099B002B3FF487AE119A002A76
:1020C0003FF483AE013B09937FE6109B0022013B66
:1020D000109330461D4B3946FFF7CEFB0B460246A8
:1020E0000146CDE90E231A46C4E79FED137B042673
:1020F0008DED0E7BCDF840E067E609F10043CDF8A9
:1021000028800B933AE600BF61436F63A787D23FF5
:1021100071A379094F930A401655B5BBB16B0240C4
:10212000EF39FAFE422EE63F2D431CEBE2361A3F12
:102130000000000080842E4100000000000000002C
:102140000000F83F0000E03F00002C400000244069
:10215000000018400000F03FFB799F501344D33F2C
:10216000B3C8608B288AC63F2DE9F04F2DED028B56
:1021700095B0DDE922450695249DDDE92067CDE98E
:102180000701CDE90923304632463B4639460595DD
:10219000FFF716FC002840F0C481304639464FF066
:1021A000FF326FF48013FFF71DFC002840F00D8113
:1021B000304639464FF0FF32BF4BFFF74FFC002847
:1021C00040F0DD80B8A3D3E9002330463946FFF75D
:1021D00045FC002840F0C180B5A3D3E90023304678
:1021E0003946FFF7FFFB002840F0B78030463946FC
:1021F00000220023FFF7F6FB002840F0DA802B4690
:102200000B9013F4806F08BF06243021A2460CAB5C
:10221000A4F1200206E00AF1FF3A524503F8011B3F
:1022200000F03181BAF1090FA4EB0A05F3D8394661
:102230003046FFF7A1FBA14B044603EBCA0393ED25
:10224000008BFFF775FB02460B4630463946FFF719
:10225000D9FA53EC182BFFF7E9FA89468046FFF7C5
:102260009DFB8346FFF776FB02460B4640464946F8
:10227000FFF7C8FA0022924B80468946FFF7EEFB33
:10228000002800F0F1800BF1010B5846FFF762FBCC
:1022900002460B4651EC180BFFF7B8FB10B14FF09C
:1022A000000B0134BAF1000F40F09A802046FFF78E
:1022B0003FFB02460B4630463946FFF7A3FA0022A1
:1022C0007F4B06460F46FFF78DFB40B93046394637
:1022D00000227B4BFFF7C2FB002800F016816A1E2C
:1022E0000CAB78491A44202D4FEAE47300F0938038
:1022F00081FB0460C3EBA00303EB8300A4EB400469
:1023000004F1300001351C4602F8010F002BEAD120
:10231000059B03F00303012B00F08380202D0AD0DE
:102320000B9B002B00F0B1802D2205F150036B4474
:1023300003F8202C0135059B0CAC0393069B0094FD
:10234000CDE90153DDE90701DDE90923FFF798FB3A
:1023500015B0BDEC028BBDE8F08F059BCDE9206781
:10236000DDE907012493069B22942393DDE90923E9
:1023700015B0BDEC028BBDE8F04FFFF7C5BC05F012
:1023800004042395504D002C504C18BF2C46DDE919
:10239000070120940CBF03240424069B2293DDE94B
:1023A0000923219415B0BDEC028BBDE8F04FFFF777
:1023B00067BB01213B4632460B9100200021FFF70D
:1023C00021FA2B4606460F461BE7069C23952294CE
:1023D0000424DDE90923DDE907013D4D2095E0E70F
:1023E000681E0CAB3B4F18440FE0A7FB0B32D20822
:1023F00002EB8203ABEB43033033BBF1090F00F870
:10240000013F69D9B24693460D46202D0AF1FF36A9
:1024100005F10101E9D1059B202503F00303012B00
:1024200089D1069B002B3FF479AF0B9B1BB9059B11
:1024300013F00C0F02D0069B013B0693069BAB42A8
:102440007FF66CAF202D0DD030226B1E0DEB0201FC
:102450000B44069901358D4203F8012F3FF45EAF1E
:10246000202DF7D1202566E7404649460022144B2F
:10247000FFF7B8FA00287FF415AFBBF1000F4BD17E
:102480000BF1010B0EE72025D1E6059B5A0741D43D
:102490001B077FF550AF202205F1300313446B4436
:1024A00003F8202C013546E70000000065CDCD4142
:1024B0000000000065CDCDC1FFFFEF7F4060001040
:1024C0000000E03F676666662C6000102860001020
:1024D00038600010CDCCCCCC20299CD05EB30CABA6
:1024E0005A1930200D460135202D02F8010F92D0E7
:1024F000EB430B4413EB0A0FF5D12E2205F15003E9
:102500006B4403F8202C0135E9E6E1077FF5E7AEDF
:102510000134E4E62B2208E71BF0010F3FF4C2AEC2
:10252000AEE7069C23952294044D0324DDE909239C
:10253000DDE9070152E70D46DFE700BF3460001018
:102540002DE9F04F9BB0249C844D0994844C0F1EC0
:1025500018BF834625601878824D904608BFAB4669
:10256000002800F0C4821C464FF0000A0AE05246E0
:1025700043463946D8470AF1010A01342078002839
:1025800000F0C9802528F2D10021631C1C4613F8F5
:10259000010BA0F12002102A0AD8DFE802F03C0962
:1025A00009390909090909090936093309093000F6
:1025B000A0F13003092B40F290802A2800F0B98066
:1025C00000252E2800F0988000230A93A0F16803CC
:1025D000122B27D8DFE813F01F0126001A0126006E
:1025E00027012600260026002600260026002600B9
:1025F000220026002600260026002600220041F0A8
:102600000101C3E741F00201C0E741F00401BDE769
:1026100041F01001BAE741F00801B7E7607841F4F2
:1026200080710134A0F12503532B00F28E80DFE886
:1026300013F01C018C008C008C008C008C008C0032
:102640008C008C008C008C008C008C008C008C002A
:102650008C008C008C008C008C008C008C008C001A
:102660008C008C008C008C008C008C008C008C000A
:102670008C00C5010201C5018C008C008C008C000F
:102680008C008C008C008C008C008C008C008C00EA
:102690008C008C008C008C009B008C008C008C00CB
:1026A0008C008C008C008C008C008C009B008E01B8
:1026B0009B00C5010201C5018C009B008C008C00B1
:1026C0008C008C008C009B006E018C008C0026011D
:1026D0008C009B008C008C009B00002505EB850581
:1026E00000EB450514F8010F303DA0F13003092B34
:1026F000F4D92E287FF468AF607841F48061A0F1AE
:102700003003092B04F1010240F23F812A2800F036
:102710004B81144658E75446D04501D808F1FF3A9A
:102720004346524639460020D84720461BB0BDE8F4
:10273000F08F099B607853F8045B0134002DBCBF17
:1027400041F002016D4209933BE752464346394648
:1027500001340AF1010AD84710E700BF41250010F3
:10276000182100207D1A0010782800F07A8158285E
:1027700000F0C0816F2800F00E82622800F06A83AA
:1027800021F0100369284FF00A090B9340F00682EC
:10279000490500F16D810B9B13F4007040F0088235
:1027A00013F4807140F0E3825E06099A00F14982D9
:1027B00013F0800F52F8043B00F097831BB209928C
:1027C00083EAE372A2EBE37292B2D80F0D90002B72
:1027D00040F065820B9820F0100340050B9340F108
:1027E0005E8212AB0C9352460B9BCDE905530A9BBC
:1027F000CDE903930D9BCDE901130C9B0093434658
:1028000039465846FFF780F982467EE0607841F409
:102810000071013406E76078682800F0638141F0B8
:1028200080010134FEE660786C2800F0568141F4A6
:1028300080710134F6E60A9B462808BF41F020016A
:102840000293099BCDE90351073323F00705B5EC4B
:10285000027B52464346394658468DED007B09952A
:10286000FFF782FC0134824688E60AF101005246F5
:1028700043468246394625200134D8477EE6099BE7
:1028800053F8046B0D930A9B3078002B00F0D8802E
:10289000002800F032835A1E0132B146324401E072
:1028A000914503D019F8013F002BF9D1A9EB06039C
:1028B000099311F480630B9305D0DDE9093293424B
:1028C00028BF1346099311F002030C9300F04981CD
:1028D000002800F034810B9B002B00F0B7800A9B8E
:1028E00052465344994608E043463946D84716F8BD
:1028F000010F0AF1010A10B15246D145F4D10C9BE7
:10290000002B40F01C810D9B0993013436E6099899
:1029100050F8043B002B74D041F0210512AA164652
:1029200000210C9202E0202974D0134603F00F0C12
:102930006246BCF1090F94BF303237320F2B06F8D4
:10294000012B01F101014FEA1312ECD862E08B0771
:1029500040F1DA80DDF82490524659F8040B4346E2
:102960003946C0B2D847012D0AF1010688BFAA44F2
:1029700040F2918132464346394620200136D847FD
:102980005645F7D1CDF82490BFE7002303EB83032E
:1029900000EB430312F8010F303BA0F13004092C87
:1029A000F4D914460A9311E6099BA07853F8042B36
:1029B0000234099322EAE2730A9307E600F0DF0388
:1029C000472B08BF00F0FD000A9B08BF41F40061DF
:1029D000452808BF41F020010293099BCDE903512E
:1029E000073323F00705B5EC027B524643463946D0
:1029F00058468DED007B0995FFF786F90134824634
:102A0000BCE521F010054E0545F0210586D5194697
:102A100012AB0C930A9B524604930C9B01910093BA
:102A2000082305931023039300230990029339464A
:102A3000434658460695FFF767F8013482469DE500
:102A40006FF0010200287FF427AF31E7524643467A
:102A50003946D84716F8010F0AF1010A0028F5D1C6
:102A60004DE74FF0100921F00C0349050B9303D5F6
:102A70000B9B23F001030B9369283FF48CAE642871
:102A80003FF489AE0B9B13F4007040F0528113F4B5
:102A9000807140F0C6815E0640F1F080099B53F8DA
:102AA000042B0993D2B2002A40F01E810B9820F02B
:102AB000100340050B9340F11781114612AB0C93A4
:102AC0000B9B0191CDE905530A9BCDE90393524637
:102AD0000C9B00930023029391E6A07841F440718F
:102AE00002349FE5A07841F0C00102349AE5044623
:102AF000824611E621F00C0343F020030B934B05B3
:102B00004FF01009B4D4BDE7012D40F2F4810AF171
:102B1000FF331D4452464346394620200AF1010A3C
:102B2000D847AA45F6D1099E434656F8040B2A46D3
:102B30003946C0B2D84705F1010A0996E5E6099B76
:102B400056469D427FF6DFAE05EB0A00A0EB030A76
:102B500032464346394620200136D8475645F7D1FC
:102B6000D1E6099A954202F1010340F2C88105EBD2
:102B70000A09A9EB020952464346394620200AF1C8
:102B8000010AD847CA45F6D130786B1C0993002852
:102B90007FF4A1AEB7E64FF008090B91642818BF87
:102BA0000B997FF460AF0B9B5A053FF561AFF2E5DF
:102BB000099B073323F007031A4610465B6850F859
:102BC000082B002B19461646099060DB0846D90FE2
:102BD00013430D913BD00B9B002113F0200F14BF2A
:102BE0004123612312AA0A3BCDE90EA51094CDF82A
:102BF00044B00D46144682469B460C9203E0202DBD
:102C000017D006468A4630464A465146002303F00E
:102C1000F3F8D2B2092A02F1300388BF02EB0B03AA
:102C2000DBB24E4504F8013B7AF1000305F10105E2
:102C3000E5D22A46DDF838A0109C0F9DDDF844B09F
:102C40000FE052F8043BDBB209921A46BDE50B9A3D
:102C500022F0100352050B93BDD500231A4612AB88
:102C60000C930B9B0192CDE905530A9B5246CDE98B
:102C700003930D9B02930C9B0093C0E513F0800F10
:102C8000099B53F8042B099318BF92B20BE75642E5
:102C900063EB43019AE7B246CDF8249035E60B9BEF
:102CA00013F0200F14BF4FF0410E4FF0610E12AB26
:102CB0009C460C93AEF10A0E03E020293FF493AD3D
:102CC0003246B2FBF9F609FB1620C3B2092803F11C
:102CD00030008ABF7344C3B2DBB24A450CF8013BF3
:102CE00001F10101E9D27EE50B9B13F0200F14BF27
:102CF0004FF0410E4FF0610E12AB9C460C93AEF1BB
:102D00000A0E03E020293FF4DBAE3246B2FBF9F6AF
:102D100009FB1620C3B2092803F130008ABF7344AF
:102D2000C3B2DBB24A450CF8013B01F10101E9D223
:102D3000C6E6099B073323F007035A6853F8086B6C
:102D40001046099356EA020335D10B9A22F010037C
:102D500052050B932FD500231A4612AB0C930B9BF5
:102D60000192CDE905530A9BCDE90393AFE6099B98
:102D70001A4652F8043B0D92D90F83EAE372A2EB94
:102D8000E3720991002B68D10B9921F010030B938A
:102D90004B0562D512AB0C930B9B5246CDE9055304
:102DA0000A9BCDE90393099BCDE901030C9B00939A
:102DB0000D9B099323E50B9B002113F0200F14BFFB
:102DC0004123612312AA0A3BCDE90DA50F94CDF84A
:102DD00040B00D46144682469B460C9203E0202DDF
:102DE00017D006468A4630464A465146002303F02D
:102DF00003F8D2B2092A02F1300388BF02EB0B03B9
:102E0000DBB24E4504F8013B7AF1000305F1010500
:102E1000E5D22A46DDF834A00F9C0E9DDDF840B0C7
:102E20009DE7099B53F8042B0993002A39D10B998C
:102E300021F010030B934B0533D512AB0C930B9B76
:102E40005246CDE905530A9B0190CDE903930C9BB3
:102E500000933FE64FF002099FE60B9B13F0200F13
:102E600014BF4FF0410E4FF0610E12AB9C460C9315
:102E7000AEF10A0E02E020288ED03246B2FBF9F6FF
:102E800009FB1621CBB2092903F130018ABF734433
:102E9000CBB2DBB24A450CF8013B00F10100EAD2AB
:102EA0007AE70B9B13F0200F14BF4FF0410E4FF049
:102EB000610E12AB9C460C93AEF10A0E02E0202884
:102EC000BDD03246B2FBF9F609FB1621CBB2092977
:102ED00003F130018ABF7344CBB2DBB24A450CF830
:102EE000013B00F10100EAD2A9E7099283EAE3720B
:102EF000A2EBE37269E4554615E60990D9E409931B
:102F000000287FF4E8ACFEE470B594461E46054602
:102F10000C4684B04FF0FF32634602A90096034886
:102F2000CDE90254FFF70CFB04B070BDF91C001092
:102F300010B5094B84B01C684CB1034600914FF0AA
:102F4000FF3203A90548A047012004B010BD00F0DE
:102F500071F9204604B010BD18210020F11C0010AA
:102F600000BEFDE708B5FFF7FBFF00BF38B5064D13
:102F7000064CFEF7BFFAAC4204D254F8043B984723
:102F8000AC42FAD338BD00BF005F0010F85E0010FD
:102F90000368084611461847437D2DE9F0478246ED
:102FA0000F469146002B44D0002A2ADD002401253B
:102FB0002046DFF88C804E1E2CB3337816F8012F94
:102FC000A3F10D03B3FA83F30A2A4FEA531320D077
:102FD0002B46994504F1010405F10105ECDC81451E
:102FE00005DDA9EB0001DAF80030384498474F447A
:102FF00017F8013CA3F10D03B3FA83F35B098AF8D8
:103000001430BDE8F08716F8012F9AF814300A2A18
:10301000DED1002BDCD1A04204DA211ADAF800302C
:103020003844984740460221DAF80030984728464D
:10303000CEE73846DAF800301146BDE8F0471847C9
:10304000906000100B682DE9F041802B0D4606467C
:1030500005D05A1C2B442A601E71BDE8F0810F4B2D
:103060001C68A4B10E4F01F1040801E0246974B199
:103070002368002BFAD03B680BB1A342F6D120465F
:1030800041462A68FFF788FF2469002CF0D100230D
:1030900001222B442A601E71BDE8F0810C1D002026
:1030A000141D00202DE9F04782B00D469246994646
:1030B0000746FEF787F82F4A821841F10003002BDC
:1030C000BCBF4FF0FF326FF000432B4802F0C4FE4C
:1030D0006B1C804603D1384602F05CFE0546274B48
:1030E000274E1C68274BB9F1000F08BF1E46B4B12C
:1030F000BAF1000F1AD1DFF8909001E0246974B1A1
:103100002368002BFAD0D9F800300BB1A342F5D1D7
:1031100020462A463946B0472469002CF0D1B8F140
:10312000000F1FD1284602B0BDE8F0874FF00A0A11
:10313000DFF8549002E02469002CF0D02368002BC3
:10314000F9D0D9F800300BB1A342F4D120462A4679
:103150003946B047204601220DF107018DF807A03E
:10316000B047E8E7044802F057FE284602B0BDE841
:10317000F08700BF40420F00441500200C1D0020C6
:10318000992F0010912F0010141D0020084A136879
:1031900023B90AE003F110021B6933B19842F9D157
:1031A00029B9036913600161704701B1106070476C
:1031B0000C1D002000F0CABAF0B583B006468DF8A9
:1031C0000700FDF7FFFF174A821841F10003002BAB
:1031D000BCBF6FF000434FF0FF32134802F03CFEDB
:1031E000124B07461C689CB1114D01E024697CB16B
:1031F0002368002BFAD02B680BB1A342F6D12046EE
:1032000001220DF10701FFF7C7FE2469002CEFD161
:1032100017B9304603B0F0BD034802F0FDFD30465B
:1032200003B0F0BD40420F00441500200C1D0020EB
:10323000141D002038B5044602F0ACFD01230546FC
:103240001A4620462946FFF72DFF084B1C682CB173
:1032500063682BB198472469002CF9D1284638BD02
:103260002469002CF4D1284638BD00BF0C1D002075
:103270002DE9F041A2B004460D46FDF7A3FF274A11
:103280000026821841F10003002BBCBF4FF0FF3233
:103290006FF00043224802F0DFFD2B46074622462E
:1032A000204801A90196FFF72FFE019B06467BB936
:1032B0001D4B1C682CB1636843B198472469002CEE
:1032C000F9D10FBB304622B0BDE8F0812469F1E7A7
:1032D000DFF85480D8F80050EDB1144C01E02D69AE
:1032E00075B12B68002BFAD023680BB19D42F6D143
:1032F0002846019A02A9FFF74FFE2D69002DF0D153
:10330000D8F800400195D5E7054802F085FD304624
:1033100022B0BDE8F0810195D3E700BF40420F0025
:1033200044150020453000100C1D0020141D002005
:103330000FB400B583B004A951F8040B0191FFF755
:1033400097FF03B05DF804EB04B07047704700BF0F
:103350000022014B1A707047752100204B79FF2B1A
:103360000BD1887948B9CB79012B07D1082A05D927
:10337000034B8A7809201A7070470020704700BFFD
:103380007521002001207047012908D110B5124B8A
:103390000C461B789188994203D0002010BD012073
:1033A00070475378012B08D0022BF6D100216422FC
:1033B0000846FDF7D7FF204610BD5188CB054BBF0F
:1033C0004A0A4A0A10464FF0FF3002F0010201F0AB
:1033D0007F01FEF749F800BF7521002000487047C3
:1033E000B4600010012907D15378012B02D19388D2
:1033F000072B03D000207047012070471146A623F9
:10340000014A01F057BA00BFD860001003460122FC
:1034100001481A70704700BF9460001008B50B682F
:10342000B3F5966F00D008BD00224FF0FF30114673
:10343000FEF71AF8024A034B10601960704700BF8C
:10344000AC1C0020B01C0020184B70B51A68002A74
:1034500028D0EFF3108172B6D2E8CF4F0120002CB4
:10346000FAD1C2E8440F002CF6D1BFF35F8F0022DF
:103470000F4C186859602270C0E88F2F81F31088B4
:10348000002400250B4E3078FDF758F820B90024B1
:1034900000252046294670BD3078FDF75FF82046AC
:1034A000294670BD4FF47A740025EBE724210020F3
:1034B0007721002076210020014B1878FDF74EB8C7
:1034C0007621002038B5044600200D4601F03AFB75
:1034D00090B3002001F04CFB70B3FDF773FE184A67
:1034E000821841F10003002BBCBF4FF0FF326FF098
:1034F0000043144802F0B0FCF0B1002001F022FBC0
:1035000058B900214FF0FF3000F01CFD6FF00204AD
:103510000C4802F081FC204638BD002001F028FB59
:103520000028EED021462A46002001F02DFB041E83
:1035300008BF6FF00204EBE76FF00204EBE700BF97
:1035400040420F005821002008B5FDF73BFE0F4A0E
:10355000821841F10003002BBCBF4FF0FF326FF027
:1035600000430B4802F078FC70B14FF0FF300021AF
:1035700000F0E8FC002001F04FFB0028F5D1BDE889
:103580000840034802F048BC08BD00BF40420F009D
:10359000582100202DE9F84307460E46FDF712FE9C
:1035A000344A821841F10003002BBCBF4FF0FF32B8
:1035B0006FF00043304802F04FFC08B9BDE8F883D3
:1035C000002001F0BFFA002849D0002E42DD00257E
:1035D000DFF8A880DFF8A89013E02246002001F071
:1035E0005FFB002104464FF0FF3000F0ABFC0020F1
:1035F00001F012FBFDF7E6FDC8E900012544AE42EB
:1036000028DD002001F070FB741B8442A8BF044633
:103610007919002CE1D121464FF0FF3000F092FCE7
:10362000204601F0F9FA204601F08CFA90B12046CC
:1036300001F05AFB0028E2D1FDF7C4FDD8F80030B4
:10364000D8F8042013EB090342F10002834272EB25
:103650000103D4D20848BDE8F84302F0DDBB0020E6
:103660000021064BC3E90001BDE8F843024802F01F
:10367000D3BB00BF40420F0058210020D0160020CD
:1036800020A1070030B5002185B02A4802F0D4FB04
:10369000F0B9294B1A68CAB1EFF3108172B6D2E8BB
:1036A000CF5F0124002DFAD1C2E8454F002DF6D19D
:1036B000BFF35F8F214C1D6822785960D3B201227D
:1036C0002270C5E88F0F81F31088CBB105B030BDF3
:1036D00000214FF0FF3000F035FC002001F048FAE7
:1036E0000446144802F098FB002CEFD0144B1B68E2
:1036F000002BEBD0134A106805B0BDE830401847E6
:10370000FDF752FB0446FDF75DFD10F57A7241F1BD
:1037100000030125002120460B4C002BBCBF4FF0BD
:10372000FF326FF00043CDE901150094FDF740FB37
:1037300005B030BD58210020242100207721002031
:10374000AC1C0020B01C0020493400104FF0504346
:1037500030B585B01C68FDF727FBFDF739FCA042AA
:1037600002D0002005B030BD0021274B08461B7851
:1037700001F088FD25480368002B42D00120FDF7A9
:103780008DF80346224C2349C0B22370FCF704FF96
:1037900020780121FCF7BCFE0E20FCF7EDFE18BBE3
:1037A0001D4B0125C3E90000FDF7FEFA0446FDF7B5
:1037B00009FD10F57A7241F1000300212046174CF3
:1037C000002BBCBF4FF0FF326FF00043CDE9011575
:1037D0000094FDF7EDFA0028C3DB01211048FFF744
:1037E000D5FC012005B030BD0120FCF74DFE01469F
:1037F0000948FDF7B3F800220E200A49FCF7FCFE49
:10380000EBE7FDF78FF8B9E70C63001058210020B3
:103810007621002085360010242100204934001034
:1038200004150020B93400100048704720620010D1
:1038300000487047CC61001038B51A4B04461A781E
:103840002AB344B940F209424FF44173164D6A80DD
:1038500015482B8038BD052C21D8144B124D53F838
:10386000241028460023013903E0132B20F8022FEF
:1038700012D011F8012F5FFA83FC0133002AF4D132
:103880000CF10103DBB25B0043F44073E0E711216C
:10389000184600F025F8D4E74FF44A73D8E7002023
:1038A00038BD00BF60210020E41C002034620010FD
:1038B00000B545F247308BB0FDF7CAFD0122034643
:1038C000092101A89847DDE90332044912BA1BBA5D
:1038D000C1E900230BB05DF804FB00BF4C210020C0
:1038E000013900F0B3805D4A13784FEA231C9F2B07
:1038F0008CBF0CF1370C0CF1300C012980F800C0A2
:1039000000F0A78003F00F03092BCCBF373330330F
:103910000229437000F09D8053784FEA231C9F2BAF
:103920008CBF0CF1370C0CF1300C032980F802C06D
:1039300000F08F8003F00F03092BCCBF37333033F7
:103940000429C37000F0858093784FEA231C9F2BD5
:103950008CBF0CF1370C0CF1300C052980F804C039
:1039600077D003F00F03092BCCBF37333033062950
:1039700043716ED0D3784FEA231C9F2B8CBF0CF180
:10398000370C0CF1300C072980F806C061D003F029
:103990000F03092BCCBF373330330829C37158D0FC
:1039A00013794FEA231C9F2B8CBF0CF1370C0CF1C1
:1039B000300C092980F808C04BD003F00F03092B05
:1039C000CCBF373330330A29437242D053794FEAA0
:1039D000231C9F2B8CBF0CF1370C0CF1300C0B29E6
:1039E00080F80AC035D003F00F03092BCCBF373362
:1039F00030330C29C3722CD093794FEA231C9F2BB0
:103A00008CBF0CF1370C0CF1300C0D2980F80CC078
:103A10001FD003F00F03092BCCBF373330330E29EF
:103A2000437316D0D3791A119F2B8CBF37323032A3
:103A30000F2982730DD003F00F03092BD4BF30334D
:103A400037331029C37318BF103002D0002303701E
:103A50007047002308440370704700BF4C210020CA
:103A6000F8B500F03BF90C2340271A4D1A4CAB6710
:103A7000FF220E201949FCF7BFFD3A4600212046DF
:103A800002F036F9164B0126A36280210023154A65
:103A90006670A260843A278327876184C2F88430E5
:103AA000C2F88030636084F8213084F83B30636270
:103AB0000D4BE360E36202F0F7F94FF000544FF46E
:103AC00080320A490A4B2E643046EC64C5F89010E7
:103AD000DA64F8BD00001150181D0020A903002071
:103AE00080001050840010500001105010D00100D0
:103AF0000020115001210E20FCF70ABD00220248CF
:103B0000114600F00BB900BF381D0020044B19709E
:103B100021B14FF40032034BC3F89020704700BF2F
:103B200072210020002011500B785B0602D14B78E7
:103B3000052B00D070474B88014ADBB213607047F9
:103B400000001150CB782DE9F04103F0030EBEF1D7
:103B5000010FC3F301005FD0002791F802C0374D79
:103B60000CF07F025600898806EBDC1305EB43134B
:103B70004FEADC14C1F30A01D87684F0010083F81F
:103B800002C019835870DF7094BB04232C4803EBE8
:103B9000C20305EB821C03EB0008CCF808801F5021
:103BA0008AB3284BD2001344CCF804303F31BEF125
:103BB000020F21F03F013AD0234A3719136805EB71
:103BC000471719441160214AFB60914231D83444AF
:103BD00005EB4415E97E83F0A04383F480136A6803
:103BE00043EA816343F0004301201360BDE8F081A4
:103BF000134813B200EBC20805EB821CCCF82880F6
:103C000040F833705AB90023114A05EB44140120DF
:103C1000E2606360BDE8F0810020BDE8F081D20081
:103C200002F1A04202F58012CCF82420BEE7490040
:103C3000C2E7FDF759FCFB68C9E700BF181D00206B
:103C4000800010500400105020210020FF0F105061
:103C50000001105002F028B98C4608B511460748FB
:103C60001A460CF07F034FEADC1C0CEB430C00EB14
:103C70004C1000F053F8012008BD00BF181D0020B3
:103C800011F07F000AD0C909074B01EB40004FF447
:103C90000062002103EB401002F0F6B8034BC909A3
:103CA000C1F102029A66EFE7181D002000201150B2
:103CB00011F07F0300D17047002210B4C809064CF0
:103CC00000EB430004EB40136FF4006118465DF80D
:103CD000044BDA7002F0D8B8181D00204FF0805263
:103CE00009480A4908B50A4B02600A609968C94345
:103CF00011F08051FAD14FF48052064801F0F8FFDC
:103D00000922054B5A6708BD0020024000300240DE
:103D1000000002400000105000001150837E10B5DA
:103D20000446BBB94FF0000C01232046A28221615A
:103D3000A4F816C0A37602F077F820B14FF4003251
:103D4000084BC3F89020204602F0A6F828B10123C2
:103D5000237710BD02F090F8E4E72046BDE810405C
:103D600002F082B8002011502DE9F04100241D4DD1
:103D7000804623462A781C4F1C4E0DE0336813EB17
:103D8000441325D0DB68404698472A780134E4B2D2
:103D9000511CA142234606DBA242A3EB0203EDD84D
:103DA00007EB4313EEE7124C54220021204601F0AA
:103DB0009FFF4FF0FF33251D6360C5E90133EB60C2
:103DC00004F114002022BDE8F041FF2101F090BF72
:103DD0004FF0E023D3F8F03DDB0700D500BEBDE88F
:103DE000F08100BF71210020A8620010F4160020AD
:103DF000C4180020704700BF704700BF0020704704
:103E000000207047704700BF704700BF704700BF79
:103E1000704700BF024B5878003818BF0120704728
:103E2000C4180020024B1878C0F38000704700BF10
:103E3000C41800202DE9F047DFF8008198F8003021
:103E4000FF2B4DD10D4600294ED0002154220746AC
:103E5000314801F04DFF0022304C314B20461A70A2
:103E6000FCF760FD2F4B1C602F4C04F11400FCF795
:103E700067FD204601F0EEFD2C4B1C602C4B23B15E
:103E80002C48FFF7C3FA2C4B18600024294E234618
:103E90003278DFF8ACA0DFF8A0900EE0D9F800305F
:103EA00013EB441311D05B687BB19847327801342F
:103EB000E4B2511CA142234620DBA242EED89B1A59
:103EC0000AEB43135B68002BEFD14FF0E023D3F8EC
:103ED000F03DDA0700D500BE00252846BDE8F08792
:103EE00001252846BDE8F0874FF0E023D3F8F03DE8
:103EF000DB07F1D500BE2846BDE8F08729463846E5
:103F000088F80070FFF7ACFD05460028ECD0384675
:103F1000FFF7F0FDE5E700BFC4180020BC18002043
:103F200073210020181900201C1500201C190020E6
:103F30000D34001071210020F416002038150020E7
:103F4000A86200102DE9F04FDFF8CC928BB099F801
:103F50000030FF2B00F0EF80AA4CDFF8C0A2DFF8A2
:103F6000C0B225686B69EFF3108272B6D3E8CF0F49
:103F700001210028FAD1C3E8401F0028F6D1BFF381
:103F80005F8FAA61284607A901F0C0FB00236A6978
:103F9000C2E88F3FAB6983F31088002800F0CB8024
:103FA0009DF81D30013B072B00F28E83DFE803F004
:103FB000A5B0919A89360A04089B002BD1D00998A4
:103FC0009847CEE79DF820108F4B01F07F0503EB5B
:103FD000450303EBD11393F834206FF3000283F809
:103FE000342093F834206FF3820283F83420002DBC
:103FF00000F0A480854A1B7D1278934280F0918066
:10400000DBF8002012EB431300F08E809D699DF8D1
:104010002120099B9DF81C00A847A2E77C4A137841
:10402000002B00F081801378013BDBB21370137812
:1040300003F0FF00002B94D1734D9DF81C802B786A
:1040400043F001032B7095F8343060F3000385F8DA
:10405000343095F8343060F3820385F8343095F8C5
:10406000353060F3000385F8353095F8353060F36E
:10407000820385F8353000F08DFC9DF8203003F088
:104080006002602A0BD0402A64D003F01F03012B8A
:1040900000F0C880022B00F08980002B66D04FF022
:1040A000E023D3F8F03DDD0700D500BE9DF81C00ED
:1040B0000021FFF7E5FD80219DF81C00FFF7E0FDE2
:1040C0004FE7514B1B78D9077FF54BAFFFF7A0FEA9
:1040D00047E74D4BDB78DA077FF543AF0898FFF7EA
:1040E0008BFE3EE7484B1A78D0077FF53AAF187839
:1040F000C0F3C000FFF78AFE33E79DF81C00FFF70E
:1041000033FE00F03DFC404B9DF820209A7028E7DC
:104110009DF81C00FFF728FE00F032FCFFF774FE4C
:104120001FE7501C984211DA4FF0E023D3F8F03D1E
:10413000DC0700D500BE0BB0BDE8F08F099B9DF8F1
:1041400021209DF81C0000F039FC0AE79B1A0AEBBD
:1041500043135BE72F4800F01DFC4046012108AAED
:10416000FFF740F900287FF4FCAE9FE7202A00F01B
:104170008D81002A93D19DF82130092B8FD801A27F
:1041800052F823F02B4400100F4400109F40001001
:104190004D4400109F400010F5430010A343001051
:1041A0009F4000108D430010B34200109DF8241072
:1041B00011F0700F7FF473AF144B01F07F06187885
:1041C00005EB460303EBD1131F7DCB0987424FEA72
:1041D000460601935BD3431CBB42C0F274813F1A75
:1041E0000AEB4717002A00F07281786900F0D2FBD1
:1041F000404601217B6908AA984700287FF4B1AEA8
:1042000054E700BF1C190020C418002071210020B1
:1042100073210020E533001038150020A86200103B
:10422000F41600209DF824300F2B3FF63FAFB54A1F
:104230002B441B791578AB4234D36A1C9A42FFF6A3
:1042400035AF5B1B0AEB4315686900F0A3FB012146
:1042500040466B6908AA984700287FF482AE9DF813
:10426000203013F060057FF421AF9DF821300A3B28
:10427000012B3FF61BAF00F08DFB9DF821300A2B80
:1042800000F0F781404608A900F0FAFA69E6DBF889
:10429000003003EB4717002A00F01981002F3FF48C
:1042A00005AFA2E7DBF8005015EB43153FF4FEAE77
:1042B000CAE76B789DF822609E4200F054816B78CB
:1042C000002B40F0C4816E70002E00F04A81701EF9
:1042D000C0B2FFF7ADFA002800F065814378022BE9
:1042E00040F061812B78C27923F03001C2F3401392
:1042F0001B01C2F3801243EA42130B432B70438825
:1043000000F10906C3180293CDF80C80029BB3425A
:1043100040F2AA8172780B2A00F0B5810123042AA9
:1043200040F0418118464FF00008029A7549921BEF
:1043300033460978064692B2CDF804801EE0DBF8D9
:10434000007017EB481700F02E811946049303986C
:104350003B6905929847DDE90432082808F101011C
:1043600002D9824280F004815FFA81F86549CDF874
:1043700004800978481C804500F315810198884520
:10438000A0EB0101DBD30AEB4117DEE76B78404677
:104390008DF81A300DF11A02012308A900F08AFAEB
:1043A000DFE5BDF82200030A5A1EC0B20E2A3FF60E
:1043B0007DAE01A151F822F0D745001069440010EC
:1043C00013460010AD400010AD400010F545001040
:1043D00069440010AD400010AD400010AD40001029
:1043E000AD400010AD400010AD400010AD400010D9
:1043F000C945001008A800F0D3FA40469DF82210E5
:10440000FFF77CFB2B7843F002032B70A9E5BDF886
:104410002230012B7FF44AAE2B7840466FF3C30362
:1044200008A92B7000F02CFA9BE540462B789A08DF
:1044300002F00202C3F340131343ADF81A300DF13A
:104440001A02022308A900F035FA8AE5BDF82230E5
:10445000012B7FF42BAE2B78404643F0080308A9CC
:104460002B7000F00DFA7CE5022B00F01181FFF7B4
:10447000C7FC024600283FF419AE4046538808A9FD
:1044800000F018FA00287FF46CAD0FE69DF8243098
:104490000F2B3FF60BAE1B4A2B441B791578AB4212
:1044A00027D2DBF8005015EB43153FF4FFAD6869E8
:1044B00000F070FA404601216B6908AA984700286D
:1044C0007FF44FADF2E5002A7FF4F0AD00279DF8B0
:1044D000212002F0FD03012B16D0002A7FF4DFAD6E
:1044E000019B35442B4493F834304046C3F34003DA
:1044F000A3E76A1C9A42FFF6D9AD5B1B0AEB431592
:10450000D5E700BF71210020BDF82230ABB9012AE8
:1045100000F0878099F80000FFF7B2FB019AAB1911
:10452000134493F8342042F0020283F8342093F8C5
:10453000342042F0010283F83420002F3FF411AD03
:10454000786900F027FA7B69012108AA404698475C
:10455000002000F01FFA95F83530DE073FF501AD79
:1045600090E6FFF751FC404608A900F089F9F8E40D
:104570003246012A1E46134600F0A080002A00F0B1
:104580008E800022B77805E081F80480D1B28B429A
:1045900040F28580B91855FA81F191F804C00132D2
:1045A000BCF1FF0FF0D04FF0E023D3F8F03DDB0774
:1045B00000D500BE4FF0E023D3F8F03DDF0700D573
:1045C00000BE00236B7071E5FEF708FF024600286D
:1045D0007FF453AF6AE5FFF727F9024600283FF45E
:1045E0005EAD4046122308A900F064F900287FF46C
:1045F000B8AC5BE5FFF702FC024600283FF456AD7D
:104600004046137808A900F055F900287FF4A9ACBA
:104610004CE5BDF82410FFF70FF902460028EFD152
:1046200044E599F800000293FFF742FB019BAA19A9
:104630001A4492F83410029B63F3410182F834105B
:1046400092F8341063F3000182F8341075E700210A
:104650004046FFF75BFA4046FFF7FCFAAF7840466A
:10466000FFF782FBAF702EE6DDF80C80FFF7CAFB88
:1046700079E74046012308A90DF11A028DF81A5076
:1046800000F018F96DE43278F3781644727846E653
:10469000FFF7CEF8024600287FF4EFAEFFE40246B3
:1046A0004346314606440D4800F0A0FE0C4B019AEB
:1046B0001B7801339342BFF629AE74E73A69094982
:1046C0008A4208BF02235CE74FF0E023D3F8F03DB5
:1046D000DB077FF546AC00BE43E400BFD8180020DE
:1046E00071210020DD4D00102DE9F84F0A9F002AAE
:1046F00040D00C461E4615464FF0000ADFF87C906D
:10470000DFF87C8018E0204698F8021099F800B095
:1047100000F038FEE0B121465846FFF713FAF0B139
:10472000A2780AF1010AD30916BF0B9B3A701A70DE
:104730002278AA4514441DD06278052A0FD1E17869
:1047400001F00301B1420AD1A27812F0700FDAD061
:104750004FF0E023D3F8F03DDA0700D500BE4FF06C
:10476000E023D3F8F03DDB0702D40020BDE8F88F4A
:1047700000BEFAE70120BDE8F88F00BF3815002021
:10478000C418002038B58B7813F0700F08D04FF0A4
:10479000E023D3F8F03DDB0700D500BE002038BD94
:1047A000074A084B0C46084691781D7800F0EAFD50
:1047B0000028ECD021462846BDE83840FFF7C2B9B2
:1047C000C4180020381500200B46064A0648116818
:1047D000DA09343203F07F0302EB4303184400F09C
:1047E0008BBD00BF18190020C41800200B46064AD4
:1047F00006481168DA09343203F07F0302EB430301
:10480000184400F0A3BD00BF18190020C4180020F0
:1048100010B5194C01F07F0C04EB4C0404EBD110E3
:1048200090F834C01CF0010F08D04FF0E023D3F80B
:10483000F03DDA0700D500BE002010BD90F834C06E
:1048400000F130040D484CF0010C007884F804C0ED
:10485000FFF702FA0028F0D14FF0E022237960F34D
:1048600000032371237960F382032371D2F8F03DB2
:10487000DB07E1D500BE10BDC418002038150020AC
:1048800030B50B4C8C46A64600230546086849689F
:104890001A46AEE803009CF9001028469942C4E984
:1048A0000233BDE83040ACBF80211946FFF7B0BFEE
:1048B000841800202DE9F0412F4F4FF00008BE462C
:1048C0008C46064608684968BA60AEE80300A7F857
:1048D0000E80BCF8065082B0AB4228BF2B46BB818D
:1048E0009DB14BB314467AB397F90020402B28BFF3
:1048F0004023002A32DB4146204A3046FFF788FF3A
:1049000080B1012002B0BDE8F0819CF900202B4667
:10491000002AACBF802100212A463046FFF778FFED
:104920000028EED14FF0E023D3F8F03DDB0711D59E
:1049300000BE02B0BDE8F08197F900101A460029C8
:10494000ACBF19468021D8E74FF0E023D3F8F03D03
:10495000DA070DD4002002B0BDE8F0811A462146E6
:104960000648019301F04EF98021044A019BC4E7F7
:1049700000BE2046C6E700BF84180020441800206F
:104980000022034BC3E90022C3E902221A617047E7
:1049900084180020014B1861704700BF8418002064
:1049A00030B40246044C0025234600685168C4E92F
:1049B000025530BC03C370478418002070B5414CC9
:1049C000C90922780546B1EBD21F1E4682B021D01C
:1049D0004BB14FF0E023D3F8F03DDA0700D500BE2D
:1049E000002002B070BD2146FFF79EF8236973B125
:1049F0002246032128469847012002B070BD014697
:104A00002846FFF73DF980212846FFF739F90120B4
:104A100002B070BD94F90020002A06DBA0680028CF
:104A2000DED01A46284901F0EDF8E089A168E28855
:104A3000304480B231448242E081A16016D03F2EE2
:104A400014D9A28994F90040131A9BB2402B28BFB5
:104A50004023002C27DB90424FF000012FD01A4A50
:104A60002846FFF7D5FE0028D1D114E023692BB1E9
:104A700002212846134A98470028C0D0002394F901
:104A8000002028469A42ACBF802119461A46FFF7FB
:104A9000BFFE0028BBD14FF0E023D3F8F03DDB0789
:104AA0009ED500BE9DE7904208D01A460648019365
:104AB00001F0A8F88021044A019BD1E7802100225F
:104AC000CEE700BF84180020441800202DE9F041F3
:104AD0000446FFF79FF908B9BDE8F081FFF7A2F996
:104AE00007460028F8D1C825144B05FB0436F27898
:104AF000002AF1D005FB043303F11005284600F02D
:104B0000F3FD3F28E8D93846F178FFF75DFE00282D
:104B1000E2D0284600F0E8FD3F2809D9084A384687
:104B2000F17802EBC4124023BDE8F041FFF770BEFC
:104B30003846F178BDE8F041FFF758BE7C170020F9
:104B4000F816002010B50446FFF764F908B90020F4
:104B500010BDFFF767F90028F9D1C823034803FB0C
:104B60000400007900F0010010BD00BF7C17002098
:104B7000C82208B5034B02FB0030103000F09AFD4C
:104B800008BD00BF7C1700202DE9F8434FF6FE74E6
:104B90004FF6FF734FF0C808A24298BF13461C4E51
:104BA000044608FB0065103528469AB200F0F8FD6F
:104BB0000746FFF72FF910B93846BDE8F883FFF72D
:104BC00031F981460028F7D108FB0466F378002B01
:104BD000F2D0284600F088FD3F28EDD94846F1780C
:104BE000FFF7F2FD0028E7D0284600F07DFD3F28C2
:104BF00008D9084A48464023F17802EBC412FFF76F
:104C000007FED9E74846F178FFF7F0FDD4E700BF8B
:104C10007C170020F81600202DE9F0410546FFF72B
:104C2000F9F810B90020BDE8F081FFF7FBF807465E
:104C30000028F7D14FF0C808174E08FB056424344C
:104C4000204600F037FD0028ECD008FB056638460A
:104C5000B178FFF7B9FD0028E4D040220F4902EBFC
:104C6000C5150D442046294600F09AFD044670B152
:104C700003462A463846B178FFF7CAFD50B94FF0CF
:104C8000E023D3F8F03DDB07CCD500BECBE7B1780D
:104C9000FFF7ACFD2046C6E77C170020F816002081
:104CA00038B54FF6FE754FF6FF734FF0C80CAA42A9
:104CB00098BF13460B4C9AB20CFB004424340546B3
:104CC000204600F019FE034620461C4600F0F2FC88
:104CD0003F2801D8204638BD2846FFF79DFF2046D3
:104CE00038BD00BF7C170020C82208B5034B02FB6B
:104CF0000030243000F0F8FC08BD00BF7C17002015
:104D0000F0B50025184C83B02946C822204600F093
:104D1000EFFFFF234FF4E13108221448637105705F
:104D2000A160A27304F1380101234022009504F12F
:104D3000100000F08DFC0123402204F17801009363
:104D400004F1B80704F1240000F082FC04F1C0066D
:104D50003846FBF7E7FD3046FBF7E4FDC4E90757AB
:104D6000C4E90C6503B0F0BD7C1700207817002063
:104D7000064B1A6A196B12B10022C3E9072211B15E
:104D80000022C3E90C220120704700BF7C170020DD
:104D9000002210B50E4C0F48237802600271DA072A
:104DA00007D59B070BD5BDE8104001210A4800F04C
:104DB0006DBE103000F04EFE23789B07F3D40648FA
:104DC00000F048FEBDE810400121034800F05EBE3F
:104DD000781700207C170020A0170020F0B54B7931
:104DE00083B0022B02D18B79022B03D000252846F9
:104DF00003B0F0BD264FBB783BB14FF0E023D3F8B2
:104E0000F03DDB07F2D500BEF0E78B7806463B703D
:104E10000C7809250C44617824290BD1082A02D882
:104E20000FE0AA420DD323781C4461782B44242937
:104E30009DB2F6D005290AD0042902D163790A2B44
:104E400013D00020FFF742FE284603B0F0BD2146F4
:104E50003046FFF797FC0028CFD0A3787B702378EB
:104E60001C442B4461789DB2E6E70A4B27780193F6
:104E700001330093022330461A46E119FFF734FC50
:104E80000028BAD005F10E0317FA83F39DB2D8E7D4
:104E90007C1700207E170020137803F06003202B7E
:104EA00008D170B5284C938894F800C09C4503D075
:104EB000002070BD002070475378203B032BF7D8AB
:104EC000DFE803F028240D02012930D003291FD187
:104ED0001E4BEBB10020518800E000BF18E0012913
:104EE00025D0032914D15588194805F0010686F00C
:104EF0000101257100F0CAFD164B4BB1314600206F
:104F0000C5F3400200E000BF012070BD012913D0AD
:104F1000012070BD01290FD00329F9D10E4B002BC0
:104F2000F6D000200D49FEF779FA012070BD114638
:104F3000FFF7A6FC012070BD11460723074AFFF7C3
:104F4000B9FC012070BD00BF7C17002000000000EC
:104F5000A0170020000000001D340010841700205E
:104F60002DE9F047374D0C46EA7807468A421E463F
:104F700055D1DFF8E8809AB2414605F1100000F003
:104F8000BBFC314BC3B16B79FF2B15D0A6B105F13A
:104F9000100908EB060A02E0D0450DD06B7918F82D
:104FA000012B9A42F8D1484600F094FB0028F3D137
:104FB000697900E000BFEFE7244B23B1244800F0FB
:104FC00089FB00283AD00020FFF780FDAB78A34290
:104FD00003D001242046BDE8F0871E4B13B100200A
:104FE00000E000BF0020FFF717FE0028F1D11A48AB
:104FF00000F060FB0028ECD1002EEAD016F03F064E
:10500000E7D13846A978FFF7DFFB04460028E0D057
:10501000334632463846A978FFF7FAFBDAE7AB7831
:105020008B42DAD04FF0E023D3F8F04D14F00104B6
:10503000D0D000BE00242046BDE8F08700E000BFCD
:10504000C1E700BF7C170020000000000000000046
:105050008C17002000000000A0170020F816002088
:10506000F0B5144C85B04FF413720021204600F0C7
:105070003FFE402700234FF480760F4D04F5A672C3
:1050800019460295009204F594701A46039701960A
:1050900000F0D8F9002304F128023D44009219469B
:1050A0000122CDE902570196201D00F0CBF905B091
:1050B000F0BD00BF601A0020E019002010B5054CBB
:1050C00004F5947000F0EAF9201D00F0E7F90120E2
:1050D00010BD00BF601A002038B50025064C04F54D
:1050E0009870257000F0B6FC04F10C0000F0B2FCE2
:1050F00084F82951657138BD601A00202DE9F84FF8
:105100004B79FF2B50D1394D0C7895F829316E79B8
:105110000C441E430F4604EB020B45D18B782B70D9
:105120000B79002B3CD0804605F5987905F10C0AE7
:105130006378052B09D0A34502D831E05C452FD216
:1051400023781C446378052BF8D1A34528D9214640
:105150004046FFF717FB00283FD0A378DB0926D194
:10516000484600F077FCA37895F8282185F8293186
:10517000A3884046C3F30A03A3F50073B3FA83F38D
:105180005B0963F341021A4985F8282100F0F6F91A
:1051900018B33A7901362178F3B29A420C44C7D851
:1051A000E01B80B2BDE8F88F0020BDE8F88F5046C4
:1051B00000F050FCA3782A796B71A3880D49C3F3E2
:1051C0000A03A3F50073B3FA83F35B0963F34102A7
:1051D00000202A7100F098F9DBE74FF0E023D3F8C4
:1051E000F03DDB07E0D500BEDFE700BF601A00201E
:1051F000881B0020641A002070B51C4C064694F8E9
:1052000029C11D468C4517D1B4F8343163B9184B08
:1052100023B100201749AAB200E000BF304616496A
:1052200000F0ACF9012070BDD4F82C11AAB204F53D
:10523000987000F061FBEAE763798B4201D00020AF
:1052400070BD0E4B1BB10020A9B200E000BF30467C
:105250000B4900F059F908B1012070BD2A463046CB
:10526000074900F01DF9012070BD00BF601A002041
:1052700000000000E0190020881B00200000000052
:10528000641A002010B582B0A9B1012808D80B78A3
:1052900033B1184C012B235420D0012002B010BD93
:1052A0004FF0E023D3F8F03DDA0702D4002002B03B
:1052B00010BD00BEFAE70124084601A9ADF804407C
:1052C000FEF7B8FD38B94FF0E023D3F8F03DD90729
:1052D000EDD500BEEBE7074B1C70E8E7FEF7AAFD33
:1052E0000028DAD14FF0E023D3F8F03DDB07DDD51D
:1052F000EFE700BFB8180020F8B5037813F00104F9
:105300001AD1037805465A07C3F3800701D5204612
:10531000F8BD0E464FF0FF31304600F095FD2B787A
:1053200013F001040BD12B785B0709D42B780124EF
:1053300043F004032B7003E000242046F8BD3C46F4
:10534000304600F069FD2046F8BD00BF70B50D463F
:1053500004464FF0FF31284600F076FD2378C3F372
:1053600080065B0708D5237813F0010211BF0026E1
:10537000237862F382032370284600F04DFD304607
:1053800070BD00BFC378828803F003000228C2F317
:105390000A0205D003281BD0012807D0002070473F
:1053A00002291ED0402A09D801207047022940F264
:1053B000FF3308BF4FF480639342F6D24FF0E023EF
:1053C000D3F8F00D10F00100EFD000BE00207047C0
:1053D00002290CBF4FF4806340239342EED3012097
:1053E000E3E7B2F5007FDFD0E8E700BF0A4491426F
:1053F00026D291F801C0BCF1050F05D091F800C08C
:1054000061448A42F5D8704700B591F802C00CF0AB
:105410007F0E00EB4E0E4FEADC1C0EF80C3091F8BC
:1054200000C061448A4209D991F801C0BCF1050F5E
:10543000EBD091F800C061448A42F5D85DF804FBD6
:10544000704700BF2DE9F0418E4682B0009390F87E
:1054500000C0089EBDF824706EF3000C044615468B
:10546000012331463A4600F808CBBDF82C8000F005
:10547000EFF806B13FB901200A9BA4F802806360EF
:1054800002B0BDE8F08104F11C063046FBF74AFA91
:105490000DB135460026C4E90556ECE701207047FA
:1054A000F8B50746084640F2FF13154610F8082BDA
:1054B0000C4612F0020F14BF1E463F2600F0FAF809
:1054C00028B925B1354202D12378DA0701D5002069
:1054D000F8BD38466178FFF777F90028F7D02378D0
:1054E00013F0010307D04FF0E023D3F8F03DDB07C2
:1054F000EDD500BEEBE71A4638466178FFF788F92C
:105500000028F0D0F8BD00BF70B501F108050646CF
:1055100028460C4600F0CEF810B12378D90701D503
:10552000002070BD30466178FFF74EF90028F7D0B3
:1055300028466288616800F033F92378054648B14F
:10554000DA0710D54FF0E023D3F8F03DDB07E7D5BD
:1055500000BEE5E713F00105E2D130466178FFF7C0
:1055600045F9284670BD0346626830466178FFF70A
:105570004FF90028E6D02846F4E700BF8B892DE9D3
:10558000F0410C4605462BB90B78DE073DD50020CF
:10559000BDE8F0810E4616F8083B2C4A03F00203E2
:1055A000002B304615BF90466FF03F084FF4007750
:1055B000402700F099F88742E9D82378D907E6D444
:1055C00028466178FFF700F90028E0D0304600F067
:1055D0008BF8874223782BD8DA070ED4668808EA3E
:1055E000000290B2864228BF064661785EB36268C8
:1055F00033462846FFF70CF908BB4FF0E023D3F8F9
:10560000F03DDB07C3D500BEC1E74978FFF7DCF802
:105610000028BCD02378D807EFD46388617883B1A1
:1056200062682846FFF7F4F80028E6D06088AFE704
:1056300013F00106ABD128466178FFF7D7F8304662
:10564000A6E71A46EDE73246D2E700BF00FEFFFFAD
:105650002DE9F041B2F5004F9DF8188027D8044697
:10566000C06817460E461D4618B14FF0FF3100F0D6
:10567000EBFB206918B14FF0FF3100F0E5FB002291
:10568000C5F30E03E06843EAC83362812660A78051
:10569000E380228108B100F0BFFB206920B100F057
:1056A000BBFB0120BDE8F0810120BDE8F0810020B6
:1056B000BDE8F081038942899BB292B2808893420F
:1056C00036BFC2EB40029B1A9B189BB2984228BF80
:1056D000184670470289438990B29BB2C01AB0FA4B
:1056E00080F04009704700BF038942899BB28088DF
:1056F00092B2934236BFC2EB40029B1A9B189BB2F8
:10570000984286BFC01A80B20020704738B5044660
:1057100000690D4618B14FF0FF3100F095FB21896B
:10572000638989B29BB2A288994236BFC3EB42001B
:10573000C81A401880B250B3824209D291422CBF9D
:10574000891A89188BB29A42638103D89B1A9BB23B
:105750009A42FBD9E2882168C2F30E0202FB0311D0
:10576000284600F04FFA6189012589B24B1C9BB293
:105770009942A2880ED9002302FA05F15B1A9BB266
:105780002069638108B100F047FB284638BD054613
:1057900063899BB2B3EB420F4FEA4201F0DBEDE7C6
:1057A0002DE9F047064600698846914618B14FF04A
:1057B000FF3100F049FB338974899BB2A4B2B588EC
:1057C000A34236BFC4EB45071F1BFF18BFB2002F13
:1057D00048D0BD423ED34F4528BF4F46A542BFB239
:1057E00003D8641BA4B2A542FBD9F2882B1B3168F5
:1057F0009BB2C2F30E0C9F42E2460CFB041123D96C
:1058000013FB0CF31FFA83F94A46404600F0FAF9FD
:105810007A1B224412FB0AF2316808EB090092B2AB
:1058200000F0F0F97289B58892B2D3199BB29A420E
:105830001AD96A009B1A9BB23069738108B100F0D3
:10584000EBFA3846BDE8F08740460CFB07F200F063
:10585000D9F9E7E7AB422CBF5B1B5B199CB22F4623
:105860007481B8E773899BB2B3EB450F4FEA4502E9
:10587000E2DBDFE7F8B50446C0680E4618B14FF02A
:10588000FF3100F0E1FA2589238961899BB289B251
:10589000A2888B4236BFC1EB42015B1A5B189BB2F8
:1058A0009A42ADB208D8E779FF0905D1E06808B19E
:1058B00000F0B2FA3846F8BD95422B4603D39B1A46
:1058C0009BB29342FBD2E2882068C2F30E0202FB35
:1058D0000300314600F096F96B1CA2889BB29D42F2
:1058E0004FEA420104D95B1A9BB201272381DDE70D
:1058F000B3EB420FF9DBF6E72DE9F04F144683B026
:10590000002A5CD00546C0688B4618B14FF0FF31C5
:1059100000F09AFAEA792F896B89D209BFB29BB25B
:105920003BD1AE889F4236BFC3EB4603FB1ADB195F
:105930009BB29E4248D9A6EB03081FFA88F8A045FF
:1059400028BFA046B5F806A008EB07091FFA89F999
:10595000BE423C4603D8A41BA4B2B442FBD2331BC4
:1059600028689BB2CAF30E024345924602FB04002C
:1059700055D3594602FB08F200F044F9AA88B9450C
:105980004FEA420302D3B9EB420F03DBA9EB030951
:105990001FFA89F9A5F8089018E0B5F80480444585
:1059A0001DD3B5F806A0A4EB0804CAF30E0202FB4F
:1059B00004BBB8F1000F09D01F464646C4E7904625
:1059C000404603B0BDE8F08F4FF00008E8680028BB
:1059D000F6D000F021FA404603B0BDE8F08F9F42B8
:1059E00036BFC3EB4802FA1AD21992B24FEA480105
:1059F00022448A420ADB03EB08091FFA89F9A9EB62
:105A00000407BFB2BB421ED97F1ABFB204EB07091D
:105A10004646B5F806A0A0461FFA89F998E713FB99
:105A200002F359469AB2019200F0ECF8019A286804
:105A30000BEB0201A8EB0602224412FB0AF292B21F
:105A400000F0E0F89AE7B942DEDD4646B5F806A078
:105A5000A0467DE710B50446C06818B14FF0FF318D
:105A600000F0F2F9206918B14FF0FF3100F0ECF9C5
:105A70000023E0686381238108B100F0CDF920693B
:105A800008B100F0C9F9012010BD00BF38B50446C7
:105A9000C0680D4618B14FF0FF3100F0D5F920690C
:105AA00018B14FF0FF3100F0CFF9E379E06865F30A
:105AB000C713E37108B100F0AFF9206908B100F035
:105AC000ABF9012038BD00BF012307480749084A48
:105AD00003600B609368D907FCD50123054A136066
